{
  "contractName": "CompoundLiquidator",
  "abi": [
    {
      "inputs": [
        {
          "internalType": "address",
          "name": "inv",
          "type": "address"
        },
        {
          "internalType": "address",
          "name": "own",
          "type": "address"
        },
        {
          "internalType": "address payable",
          "name": "ben",
          "type": "address"
        }
      ],
      "stateMutability": "nonpayable",
      "type": "constructor"
    },
    {
      "inputs": [
        {
          "internalType": "address",
          "name": "newInvoker",
          "type": "address"
        }
      ],
      "name": "setInvoker",
      "outputs": [],
      "stateMutability": "nonpayable",
      "type": "function"
    },
    {
      "inputs": [
        {
          "internalType": "address",
          "name": "newOwner",
          "type": "address"
        }
      ],
      "name": "setOwner",
      "outputs": [],
      "stateMutability": "nonpayable",
      "type": "function"
    },
    {
      "inputs": [
        {
          "internalType": "address payable",
          "name": "newBenefactor",
          "type": "address"
        }
      ],
      "name": "setBenefactor",
      "outputs": [],
      "stateMutability": "nonpayable",
      "type": "function"
    },
    {
      "inputs": [],
      "name": "withdrawETH",
      "outputs": [],
      "stateMutability": "nonpayable",
      "type": "function"
    },
    {
      "inputs": [
        {
          "internalType": "address",
          "name": "token",
          "type": "address"
        }
      ],
      "name": "withdrawToken",
      "outputs": [],
      "stateMutability": "nonpayable",
      "type": "function"
    },
    {
      "inputs": [
        {
          "internalType": "address",
          "name": "token",
          "type": "address"
        },
        {
          "internalType": "address",
          "name": "addressToApprove",
          "type": "address"
        }
      ],
      "name": "approveAddress",
      "outputs": [],
      "stateMutability": "nonpayable",
      "type": "function"
    },
    {
      "inputs": [
        {
          "internalType": "address",
          "name": "sender",
          "type": "address"
        },
        {
          "internalType": "uint256",
          "name": "amount0",
          "type": "uint256"
        },
        {
          "internalType": "uint256",
          "name": "amount1",
          "type": "uint256"
        },
        {
          "internalType": "bytes",
          "name": "data",
          "type": "bytes"
        }
      ],
      "name": "uniswapV2Call",
      "outputs": [],
      "stateMutability": "nonpayable",
      "type": "function"
    }
  ],
  "bytecode": "0x6080604052735c69bee701ef814a2b6a3edd4b1652cb9cc5aa6f600460006101000a81548173ffffffffffffffffffffffffffffffffffffffff021916908373ffffffffffffffffffffffffffffffffffffffff1602179055503480156200006657600080fd5b506040516200364838038062003648833981810160405260608110156200008c57600080fd5b8101908080519060200190929190805190602001909291908051906020019092919050505060007fffffffffffffffffffffffffffffffffffffffffffffffffffffffffffffffff905083600160006101000a81548173ffffffffffffffffffffffffffffffffffffffff021916908373ffffffffffffffffffffffffffffffffffffffff16021790555082600260006101000a81548173ffffffffffffffffffffffffffffffffffffffff021916908373ffffffffffffffffffffffffffffffffffffffff16021790555081600360006101000a81548173ffffffffffffffffffffffffffffffffffffffff021916908373ffffffffffffffffffffffffffffffffffffffff160217905550736c8c6b02e7b2be14d4fa6022dfd6d75921d90e4e600080730d8775f648430679a709e98d2b0cb6250d2887ef73ffffffffffffffffffffffffffffffffffffffff1673ffffffffffffffffffffffffffffffffffffffff16815260200190815260200160002060006101000a81548173ffffffffffffffffffffffffffffffffffffffff021916908373ffffffffffffffffffffffffffffffffffffffff160217905550735d3a536e4d6dbd6114cc1ead35777bab948e3643600080736b175474e89094c44da98b954eedeac495271d0f73ffffffffffffffffffffffffffffffffffffffff1673ffffffffffffffffffffffffffffffffffffffff16815260200190815260200160002060006101000a81548173ffffffffffffffffffffffffffffffffffffffff021916908373ffffffffffffffffffffffffffffffffffffffff16021790555073b3319f5d18bc0d84dd1b4825dcde5d5f7266d40760008073e41d2489571d322189246dafa5ebde1f4699f49873ffffffffffffffffffffffffffffffffffffffff1673ffffffffffffffffffffffffffffffffffffffff16815260200190815260200160002060006101000a81548173ffffffffffffffffffffffffffffffffffffffff021916908373ffffffffffffffffffffffffffffffffffffffff160217905550734ddc2d193948926d02f9b1fe9e1daa0718270ed560008073c02aaa39b223fe8d0a0e5c4f27ead9083c756cc273ffffffffffffffffffffffffffffffffffffffff1673ffffffffffffffffffffffffffffffffffffffff16815260200190815260200160002060006101000a81548173ffffffffffffffffffffffffffffffffffffffff021916908373ffffffffffffffffffffffffffffffffffffffff16021790555073158079ee67fce2f58472a96584a73c7ab9ac95c1600080731985365e9f78359a9b6ad760e32412f4a445e86273ffffffffffffffffffffffffffffffffffffffff1673ffffffffffffffffffffffffffffffffffffffff16815260200190815260200160002060006101000a81548173ffffffffffffffffffffffffffffffffffffffff021916908373ffffffffffffffffffffffffffffffffffffffff1602179055507339aa39c021dfbae8fac545936693ac917d5e756360008073a0b86991c6218b36c1d19d4a2e9eb0ce3606eb4873ffffffffffffffffffffffffffffffffffffffff1673ffffffffffffffffffffffffffffffffffffffff16815260200190815260200160002060006101000a81548173ffffffffffffffffffffffffffffffffffffffff021916908373ffffffffffffffffffffffffffffffffffffffff16021790555073c11b1268c1a384e55c48c2391d8d480264a3a7f4600080732260fac5e5542a773aa44fbcfedf7c193bc2c59973ffffffffffffffffffffffffffffffffffffffff1673ffffffffffffffffffffffffffffffffffffffff16815260200190815260200160002060006101000a81548173ffffffffffffffffffffffffffffffffffffffff021916908373ffffffffffffffffffffffffffffffffffffffff16021790555073f650c3d88d12db855b8bf7d11be6c55a4e07dcc960008073dac17f958d2ee523a2206206994597c13d831ec773ffffffffffffffffffffffffffffffffffffffff1673ffffffffffffffffffffffffffffffffffffffff16815260200190815260200160002060006101000a81548173ffffffffffffffffffffffffffffffffffffffff021916908373ffffffffffffffffffffffffffffffffffffffff160217905550620006cb62001777565b6040518061028001604052806040518060400160405280730d8775f648430679a709e98d2b0cb6250d2887ef73ffffffffffffffffffffffffffffffffffffffff1673ffffffffffffffffffffffffffffffffffffffff16815260200173b6909b960dbbe7392d405429eb2b3649752b483873ffffffffffffffffffffffffffffffffffffffff1673ffffffffffffffffffffffffffffffffffffffff1681525081526020016040518060400160405280736b175474e89094c44da98b954eedeac495271d0f73ffffffffffffffffffffffffffffffffffffffff1673ffffffffffffffffffffffffffffffffffffffff16815260200173a478c2975ab1ea89e8196811f51a7b7ade33eb1173ffffffffffffffffffffffffffffffffffffffff1673ffffffffffffffffffffffffffffffffffffffff1681525081526020016040518060400160405280736b175474e89094c44da98b954eedeac495271d0f73ffffffffffffffffffffffffffffffffffffffff1673ffffffffffffffffffffffffffffffffffffffff16815260200173ae461ca67b15dc8dc81ce7615e0320da1a9ab8d573ffffffffffffffffffffffffffffffffffffffff1673ffffffffffffffffffffffffffffffffffffffff1681525081526020016040518060400160405280736b175474e89094c44da98b954eedeac495271d0f73ffffffffffffffffffffffffffffffffffffffff1673ffffffffffffffffffffffffffffffffffffffff16815260200173231b7589426ffe1b75405526fc32ac09d44364c473ffffffffffffffffffffffffffffffffffffffff1673ffffffffffffffffffffffffffffffffffffffff168152508152602001604051806040016040528073e41d2489571d322189246dafa5ebde1f4699f49873ffffffffffffffffffffffffffffffffffffffff1673ffffffffffffffffffffffffffffffffffffffff16815260200173231b7589426ffe1b75405526fc32ac09d44364c473ffffffffffffffffffffffffffffffffffffffff1673ffffffffffffffffffffffffffffffffffffffff168152508152602001604051806040016040528073c02aaa39b223fe8d0a0e5c4f27ead9083c756cc273ffffffffffffffffffffffffffffffffffffffff1673ffffffffffffffffffffffffffffffffffffffff16815260200173a478c2975ab1ea89e8196811f51a7b7ade33eb1173ffffffffffffffffffffffffffffffffffffffff1673ffffffffffffffffffffffffffffffffffffffff168152508152602001604051806040016040528073c02aaa39b223fe8d0a0e5c4f27ead9083c756cc273ffffffffffffffffffffffffffffffffffffffff1673ffffffffffffffffffffffffffffffffffffffff16815260200173ec2d2240d02a8cf63c3fa0b7d2c5a3169a31949673ffffffffffffffffffffffffffffffffffffffff1673ffffffffffffffffffffffffffffffffffffffff168152508152602001604051806040016040528073c02aaa39b223fe8d0a0e5c4f27ead9083c756cc273ffffffffffffffffffffffffffffffffffffffff1673ffffffffffffffffffffffffffffffffffffffff16815260200173b4e16d0168e52d35cacd2c6185b44281ec28c9dc73ffffffffffffffffffffffffffffffffffffffff1673ffffffffffffffffffffffffffffffffffffffff168152508152602001604051806040016040528073c02aaa39b223fe8d0a0e5c4f27ead9083c756cc273ffffffffffffffffffffffffffffffffffffffff1673ffffffffffffffffffffffffffffffffffffffff16815260200173bb2b8038a1640196fbe3e38816f3e67cba72d94073ffffffffffffffffffffffffffffffffffffffff1673ffffffffffffffffffffffffffffffffffffffff168152508152602001604051806040016040528073c02aaa39b223fe8d0a0e5c4f27ead9083c756cc273ffffffffffffffffffffffffffffffffffffffff1673ffffffffffffffffffffffffffffffffffffffff16815260200173b6909b960dbbe7392d405429eb2b3649752b483873ffffffffffffffffffffffffffffffffffffffff1673ffffffffffffffffffffffffffffffffffffffff168152508152602001604051806040016040528073c02aaa39b223fe8d0a0e5c4f27ead9083c756cc273ffffffffffffffffffffffffffffffffffffffff1673ffffffffffffffffffffffffffffffffffffffff16815260200173c6f348dd3b91a56d117ec0071c1e9b83c0996de473ffffffffffffffffffffffffffffffffffffffff1673ffffffffffffffffffffffffffffffffffffffff168152508152602001604051806040016040528073c02aaa39b223fe8d0a0e5c4f27ead9083c756cc273ffffffffffffffffffffffffffffffffffffffff1673ffffffffffffffffffffffffffffffffffffffff168152602001730d4a11d5eeaac28ec3f61d100daf4d40471f185273ffffffffffffffffffffffffffffffffffffffff1673ffffffffffffffffffffffffffffffffffffffff1681525081526020016040518060400160405280731985365e9f78359a9b6ad760e32412f4a445e86273ffffffffffffffffffffffffffffffffffffffff1673ffffffffffffffffffffffffffffffffffffffff16815260200173ec2d2240d02a8cf63c3fa0b7d2c5a3169a31949673ffffffffffffffffffffffffffffffffffffffff1673ffffffffffffffffffffffffffffffffffffffff168152508152602001604051806040016040528073a0b86991c6218b36c1d19d4a2e9eb0ce3606eb4873ffffffffffffffffffffffffffffffffffffffff1673ffffffffffffffffffffffffffffffffffffffff16815260200173b4e16d0168e52d35cacd2c6185b44281ec28c9dc73ffffffffffffffffffffffffffffffffffffffff1673ffffffffffffffffffffffffffffffffffffffff168152508152602001604051806040016040528073a0b86991c6218b36c1d19d4a2e9eb0ce3606eb4873ffffffffffffffffffffffffffffffffffffffff1673ffffffffffffffffffffffffffffffffffffffff168152602001733041cbd36888becc7bbcbc0045e3b1f144466f5f73ffffffffffffffffffffffffffffffffffffffff1673ffffffffffffffffffffffffffffffffffffffff168152508152602001604051806040016040528073a0b86991c6218b36c1d19d4a2e9eb0ce3606eb4873ffffffffffffffffffffffffffffffffffffffff1673ffffffffffffffffffffffffffffffffffffffff16815260200173ae461ca67b15dc8dc81ce7615e0320da1a9ab8d573ffffffffffffffffffffffffffffffffffffffff1673ffffffffffffffffffffffffffffffffffffffff1681525081526020016040518060400160405280732260fac5e5542a773aa44fbcfedf7c193bc2c59973ffffffffffffffffffffffffffffffffffffffff1673ffffffffffffffffffffffffffffffffffffffff16815260200173bb2b8038a1640196fbe3e38816f3e67cba72d94073ffffffffffffffffffffffffffffffffffffffff1673ffffffffffffffffffffffffffffffffffffffff1681525081526020016040518060400160405280732260fac5e5542a773aa44fbcfedf7c193bc2c59973ffffffffffffffffffffffffffffffffffffffff1673ffffffffffffffffffffffffffffffffffffffff16815260200173231b7589426ffe1b75405526fc32ac09d44364c473ffffffffffffffffffffffffffffffffffffffff1673ffffffffffffffffffffffffffffffffffffffff168152508152602001604051806040016040528073dac17f958d2ee523a2206206994597c13d831ec773ffffffffffffffffffffffffffffffffffffffff1673ffffffffffffffffffffffffffffffffffffffff168152602001733041cbd36888becc7bbcbc0045e3b1f144466f5f73ffffffffffffffffffffffffffffffffffffffff1673ffffffffffffffffffffffffffffffffffffffff168152508152602001604051806040016040528073dac17f958d2ee523a2206206994597c13d831ec773ffffffffffffffffffffffffffffffffffffffff1673ffffffffffffffffffffffffffffffffffffffff168152602001730d4a11d5eeaac28ec3f61d100daf4d40471f185273ffffffffffffffffffffffffffffffffffffffff1673ffffffffffffffffffffffffffffffffffffffff168152508152509050620012e9620017a8565b604051806101000160405280730d8775f648430679a709e98d2b0cb6250d2887ef73ffffffffffffffffffffffffffffffffffffffff1673ffffffffffffffffffffffffffffffffffffffff168152602001736b175474e89094c44da98b954eedeac495271d0f73ffffffffffffffffffffffffffffffffffffffff1673ffffffffffffffffffffffffffffffffffffffff16815260200173e41d2489571d322189246dafa5ebde1f4699f49873ffffffffffffffffffffffffffffffffffffffff1673ffffffffffffffffffffffffffffffffffffffff16815260200173c02aaa39b223fe8d0a0e5c4f27ead9083c756cc273ffffffffffffffffffffffffffffffffffffffff1673ffffffffffffffffffffffffffffffffffffffff168152602001731985365e9f78359a9b6ad760e32412f4a445e86273ffffffffffffffffffffffffffffffffffffffff1673ffffffffffffffffffffffffffffffffffffffff16815260200173a0b86991c6218b36c1d19d4a2e9eb0ce3606eb4873ffffffffffffffffffffffffffffffffffffffff1673ffffffffffffffffffffffffffffffffffffffff168152602001732260fac5e5542a773aa44fbcfedf7c193bc2c59973ffffffffffffffffffffffffffffffffffffffff1673ffffffffffffffffffffffffffffffffffffffff16815260200173dac17f958d2ee523a2206206994597c13d831ec773ffffffffffffffffffffffffffffffffffffffff1673ffffffffffffffffffffffffffffffffffffffff16815250905060008090505b60148110156200162a578281601481106200154257fe5b60200201516000600281106200155457fe5b602002015173ffffffffffffffffffffffffffffffffffffffff1663095ea7b38483601481106200158157fe5b60200201516001600281106200159357fe5b6020020151866040518363ffffffff1660e01b8152600401808373ffffffffffffffffffffffffffffffffffffffff1673ffffffffffffffffffffffffffffffffffffffff16815260200182815260200192505050600060405180830381600087803b1580156200160357600080fd5b505af115801562001618573d6000803e3d6000fd5b5050505080806001019150506200152b565b5060008090505b60088110156200176a578181600881106200164857fe5b602002015173ffffffffffffffffffffffffffffffffffffffff1663095ea7b36000808585600881106200167857fe5b602002015173ffffffffffffffffffffffffffffffffffffffff1673ffffffffffffffffffffffffffffffffffffffff16815260200190815260200160002060009054906101000a900473ffffffffffffffffffffffffffffffffffffffff16866040518363ffffffff1660e01b8152600401808373ffffffffffffffffffffffffffffffffffffffff1673ffffffffffffffffffffffffffffffffffffffff16815260200182815260200192505050600060405180830381600087803b1580156200174357600080fd5b505af115801562001758573d6000803e3d6000fd5b50505050808060010191505062001631565b50505050505050620017ed565b6040518061028001604052806014905b62001791620017cb565b815260200190600190039081620017875790505090565b604051806101000160405280600890602082028036833780820191505090505090565b6040518060400160405280600290602082028036833780820191505090505090565b611e4b80620017fd6000396000f3fe608060405234801561001057600080fd5b506004361061007d5760003560e01c8063371e050e1161005b578063371e050e146101b7578063894760691461021b5780638fc47bc91461025f578063e086e5ec146102a35761007d565b806310d1e85c1461008257806313af40351461012f57806314847aad14610173575b600080fd5b61012d6004803603608081101561009857600080fd5b81019080803573ffffffffffffffffffffffffffffffffffffffff1690602001909291908035906020019092919080359060200190929190803590602001906401000000008111156100e957600080fd5b8201836020820111156100fb57600080fd5b8035906020019184600183028401116401000000008311171561011d57600080fd5b90919293919293905050506102ad565b005b6101716004803603602081101561014557600080fd5b81019080803573ffffffffffffffffffffffffffffffffffffffff169060200190929190505050610d2b565b005b6101b56004803603602081101561018957600080fd5b81019080803573ffffffffffffffffffffffffffffffffffffffff169060200190929190505050610e15565b005b610219600480360360408110156101cd57600080fd5b81019080803573ffffffffffffffffffffffffffffffffffffffff169060200190929190803573ffffffffffffffffffffffffffffffffffffffff169060200190929190505050610eff565b005b61025d6004803603602081101561023157600080fd5b81019080803573ffffffffffffffffffffffffffffffffffffffff169060200190929190505050611068565b005b6102a16004803603602081101561027557600080fd5b81019080803573ffffffffffffffffffffffffffffffffffffffff169060200190929190505050611111565b005b6102ab6111fb565b005b600160009054906101000a900473ffffffffffffffffffffffffffffffffffffffff1673ffffffffffffffffffffffffffffffffffffffff163273ffffffffffffffffffffffffffffffffffffffff1614610353576040517f08c379a0000000000000000000000000000000000000000000000000000000008152600401808060200182810382526027815260200180611d566027913960400191505060405180910390fd5b60008060008060606000878760c081101561036d57600080fd5b81019080803573ffffffffffffffffffffffffffffffffffffffff169060200190929190803573ffffffffffffffffffffffffffffffffffffffff169060200190929190803573ffffffffffffffffffffffffffffffffffffffff16906020019092919080359060200190929190803590602001906401000000008111156103f457600080fd5b82018360208201111561040657600080fd5b8035906020019184602083028401116401000000008311171561042857600080fd5b919080806020026020016040519081016040528093929190818152602001838360200280828437600081840152601f19601f8201169050808301925050505050505091929192908035906020019092919050505095509550955095509550955080431461049157fe5b6000898b116104a057896104a2565b8a5b905060606104d3600460009054906101000a900473ffffffffffffffffffffffffffffffffffffffff16838661130c565b90506000809050600080905060008090505b60018751038160ff1610156106e057600061052f888360ff168151811061050857fe5b6020026020010151896001850160ff168151811061052257fe5b6020026020010151611484565b509050878260ff168151811061054157fe5b602002602001015173ffffffffffffffffffffffffffffffffffffffff168173ffffffffffffffffffffffffffffffffffffffff16141561059e57848260ff168151811061058b57fe5b60200260200101519350600092506105bc565b848260ff16815181106105ad57fe5b60200260200101519250600093505b610618600460009054906101000a900473ffffffffffffffffffffffffffffffffffffffff16898460ff16815181106105f157fe5b60200260200101518a6001860160ff168151811061060b57fe5b60200260200101516115fb565b73ffffffffffffffffffffffffffffffffffffffff1663022c0d9f8585306040518463ffffffff1660e01b8152600401808481526020018381526020018273ffffffffffffffffffffffffffffffffffffffff1673ffffffffffffffffffffffffffffffffffffffff16815260200180602001828103825260008152602001602001945050505050600060405180830381600087803b1580156106ba57600080fd5b505af11580156106ce573d6000803e3d6000fd5b505050505080806001019150506104e5565b506000836001855103815181106106f357fe5b6020026020010151905073c02aaa39b223fe8d0a0e5c4f27ead9083c756cc273ffffffffffffffffffffffffffffffffffffffff168a73ffffffffffffffffffffffffffffffffffffffff1614156108f35773c02aaa39b223fe8d0a0e5c4f27ead9083c756cc273ffffffffffffffffffffffffffffffffffffffff16632e1a7d4d826040518263ffffffff1660e01b815260040180828152602001915050600060405180830381600087803b1580156107ac57600080fd5b505af11580156107c0573d6000803e3d6000fd5b505050506000808b73ffffffffffffffffffffffffffffffffffffffff1673ffffffffffffffffffffffffffffffffffffffff16815260200190815260200160002060009054906101000a900473ffffffffffffffffffffffffffffffffffffffff1673ffffffffffffffffffffffffffffffffffffffff1663aae40a2a828d8c6040518463ffffffff1660e01b8152600401808373ffffffffffffffffffffffffffffffffffffffff1673ffffffffffffffffffffffffffffffffffffffff1681526020018273ffffffffffffffffffffffffffffffffffffffff1673ffffffffffffffffffffffffffffffffffffffff168152602001925050506000604051808303818588803b1580156108d557600080fd5b505af11580156108e9573d6000803e3d6000fd5b5050505050610a25565b6000808b73ffffffffffffffffffffffffffffffffffffffff1673ffffffffffffffffffffffffffffffffffffffff16815260200190815260200160002060009054906101000a900473ffffffffffffffffffffffffffffffffffffffff1673ffffffffffffffffffffffffffffffffffffffff1663f5e3c4628c838c6040518463ffffffff1660e01b8152600401808473ffffffffffffffffffffffffffffffffffffffff1673ffffffffffffffffffffffffffffffffffffffff1681526020018381526020018273ffffffffffffffffffffffffffffffffffffffff1673ffffffffffffffffffffffffffffffffffffffff1681526020019350505050600060405180830381600087803b158015610a0c57600080fd5b505af1158015610a20573d6000803e3d6000fd5b505050505b6000610a458a89600081518110610a3857fe5b6020026020010151611484565b5090506000808b73ffffffffffffffffffffffffffffffffffffffff168373ffffffffffffffffffffffffffffffffffffffff161415610acd57610ac0600460009054906101000a900473ffffffffffffffffffffffffffffffffffffffff168d8c600081518110610ab357fe5b6020026020010151611756565b8092508193505050610b17565b610b0e600460009054906101000a900473ffffffffffffffffffffffffffffffffffffffff168d8c600081518110610b0157fe5b6020026020010151611756565b80935081925050505b6000610b2489848461187f565b90506000808e73ffffffffffffffffffffffffffffffffffffffff1673ffffffffffffffffffffffffffffffffffffffff16815260200190815260200160002060009054906101000a900473ffffffffffffffffffffffffffffffffffffffff1673ffffffffffffffffffffffffffffffffffffffff1663852a12e3826040518263ffffffff1660e01b815260040180828152602001915050600060405180830381600087803b158015610bd757600080fd5b505af1158015610beb573d6000803e3d6000fd5b505050506000808e73ffffffffffffffffffffffffffffffffffffffff1673ffffffffffffffffffffffffffffffffffffffff16815260200190815260200160002060009054906101000a900473ffffffffffffffffffffffffffffffffffffffff1673ffffffffffffffffffffffffffffffffffffffff1663a9059cbb33836040518363ffffffff1660e01b8152600401808373ffffffffffffffffffffffffffffffffffffffff1673ffffffffffffffffffffffffffffffffffffffff16815260200182815260200192505050602060405180830381600087803b158015610cd457600080fd5b505af1158015610ce8573d6000803e3d6000fd5b505050506040513d6020811015610cfe57600080fd5b8101908080519060200190929190505050610d1557fe5b5050505050505050505050505050505050505050565b600260009054906101000a900473ffffffffffffffffffffffffffffffffffffffff1673ffffffffffffffffffffffffffffffffffffffff163373ffffffffffffffffffffffffffffffffffffffff1614610dd1576040517f08c379a0000000000000000000000000000000000000000000000000000000008152600401808060200182810382526025815260200180611dc66025913960400191505060405180910390fd5b80600260006101000a81548173ffffffffffffffffffffffffffffffffffffffff021916908373ffffffffffffffffffffffffffffffffffffffff16021790555050565b600260009054906101000a900473ffffffffffffffffffffffffffffffffffffffff1673ffffffffffffffffffffffffffffffffffffffff163373ffffffffffffffffffffffffffffffffffffffff1614610ebb576040517f08c379a0000000000000000000000000000000000000000000000000000000008152600401808060200182810382526025815260200180611dc66025913960400191505060405180910390fd5b80600160006101000a81548173ffffffffffffffffffffffffffffffffffffffff021916908373ffffffffffffffffffffffffffffffffffffffff16021790555050565b600260009054906101000a900473ffffffffffffffffffffffffffffffffffffffff1673ffffffffffffffffffffffffffffffffffffffff163373ffffffffffffffffffffffffffffffffffffffff1614610fa5576040517f08c379a0000000000000000000000000000000000000000000000000000000008152600401808060200182810382526025815260200180611dc66025913960400191505060405180910390fd5b8173ffffffffffffffffffffffffffffffffffffffff1663095ea7b3827fffffffffffffffffffffffffffffffffffffffffffffffffffffffffffffffff6040518363ffffffff1660e01b8152600401808373ffffffffffffffffffffffffffffffffffffffff1673ffffffffffffffffffffffffffffffffffffffff16815260200182815260200192505050600060405180830381600087803b15801561104c57600080fd5b505af1158015611060573d6000803e3d6000fd5b505050505050565b600260009054906101000a900473ffffffffffffffffffffffffffffffffffffffff1673ffffffffffffffffffffffffffffffffffffffff163373ffffffffffffffffffffffffffffffffffffffff161461110e576040517f08c379a0000000000000000000000000000000000000000000000000000000008152600401808060200182810382526025815260200180611dc66025913960400191505060405180910390fd5b50565b600260009054906101000a900473ffffffffffffffffffffffffffffffffffffffff1673ffffffffffffffffffffffffffffffffffffffff163373ffffffffffffffffffffffffffffffffffffffff16146111b7576040517f08c379a0000000000000000000000000000000000000000000000000000000008152600401808060200182810382526025815260200180611dc66025913960400191505060405180910390fd5b80600360006101000a81548173ffffffffffffffffffffffffffffffffffffffff021916908373ffffffffffffffffffffffffffffffffffffffff16021790555050565b600260009054906101000a900473ffffffffffffffffffffffffffffffffffffffff1673ffffffffffffffffffffffffffffffffffffffff163373ffffffffffffffffffffffffffffffffffffffff16146112a1576040517f08c379a0000000000000000000000000000000000000000000000000000000008152600401808060200182810382526025815260200180611dc66025913960400191505060405180910390fd5b600360009054906101000a900473ffffffffffffffffffffffffffffffffffffffff1673ffffffffffffffffffffffffffffffffffffffff166108fc479081150290604051600060405180830381858888f19350505050158015611309573d6000803e3d6000fd5b50565b6060600282511015611386576040517f08c379a000000000000000000000000000000000000000000000000000000000815260040180806020018281038252601e8152602001807f556e697377617056324c6962726172793a20494e56414c49445f50415448000081525060200191505060405180910390fd5b815167ffffffffffffffff8111801561139e57600080fd5b506040519080825280602002602001820160405280156113cd5781602001602082028036833780820191505090505b50905082816000815181106113de57fe5b60200260200101818152505060005b600183510381101561147c576000806114308786858151811061140c57fe5b602002602001015187600187018151811061142357fe5b6020026020010151611756565b9150915061145284848151811061144357fe5b602002602001015183836119bc565b84600185018151811061146157fe5b602002602001018181525050505080806001019150506113ed565b509392505050565b6000808273ffffffffffffffffffffffffffffffffffffffff168473ffffffffffffffffffffffffffffffffffffffff16141561150c576040517f08c379a0000000000000000000000000000000000000000000000000000000008152600401808060200182810382526025815260200180611d316025913960400191505060405180910390fd5b8273ffffffffffffffffffffffffffffffffffffffff168473ffffffffffffffffffffffffffffffffffffffff1610611546578284611549565b83835b8092508193505050600073ffffffffffffffffffffffffffffffffffffffff168273ffffffffffffffffffffffffffffffffffffffff1614156115f4576040517f08c379a000000000000000000000000000000000000000000000000000000000815260040180806020018281038252601e8152602001807f556e697377617056324c6962726172793a205a45524f5f41444452455353000081525060200191505060405180910390fd5b9250929050565b600080600061160a8585611484565b91509150858282604051602001808373ffffffffffffffffffffffffffffffffffffffff1673ffffffffffffffffffffffffffffffffffffffff1660601b81526014018273ffffffffffffffffffffffffffffffffffffffff1673ffffffffffffffffffffffffffffffffffffffff1660601b8152601401925050506040516020818303038152906040528051906020012060405160200180807fff000000000000000000000000000000000000000000000000000000000000008152506001018373ffffffffffffffffffffffffffffffffffffffff1673ffffffffffffffffffffffffffffffffffffffff1660601b8152601401828152602001807f96e8ac4277198ff8b6f785478aa9a39f403cb768dd02cbee326c3e7da348845f815250602001925050506040516020818303038152906040528051906020012060001c925050509392505050565b60008060006117658585611484565b5090506000806117768888886115fb565b73ffffffffffffffffffffffffffffffffffffffff16630902f1ac6040518163ffffffff1660e01b815260040160606040518083038186803b1580156117bb57600080fd5b505afa1580156117cf573d6000803e3d6000fd5b505050506040513d60608110156117e557600080fd5b81019080805190602001909291908051906020019092919080519060200190929190505050506dffffffffffffffffffffffffffff1691506dffffffffffffffffffffffffffff1691508273ffffffffffffffffffffffffffffffffffffffff168773ffffffffffffffffffffffffffffffffffffffff161461186957808261186c565b81815b8095508196505050505050935093915050565b60008084116118d9576040517f08c379a000000000000000000000000000000000000000000000000000000000815260040180806020018281038252602c815260200180611d05602c913960400191505060405180910390fd5b6000831180156118e95750600082115b61193e576040517f08c379a0000000000000000000000000000000000000000000000000000000008152600401808060200182810382526028815260200180611d7d6028913960400191505060405180910390fd5b60006119676103e86119598787611aec90919063ffffffff16565b611aec90919063ffffffff16565b905060006119926103e56119848887611b7290919063ffffffff16565b611aec90919063ffffffff16565b90506119b160018284816119a257fe5b04611bbc90919063ffffffff16565b925050509392505050565b6000808411611a16576040517f08c379a000000000000000000000000000000000000000000000000000000000815260040180806020018281038252602b815260200180611deb602b913960400191505060405180910390fd5b600083118015611a265750600082115b611a7b576040517f08c379a0000000000000000000000000000000000000000000000000000000008152600401808060200182810382526028815260200180611d7d6028913960400191505060405180910390fd5b6000611a926103e586611aec90919063ffffffff16565b90506000611aa98483611aec90919063ffffffff16565b90506000611ad483611ac66103e889611aec90919063ffffffff16565b611bbc90919063ffffffff16565b9050808281611adf57fe5b0493505050509392505050565b600080831415611aff5760009050611b6c565b6000828402905082848281611b1057fe5b0414611b67576040517f08c379a0000000000000000000000000000000000000000000000000000000008152600401808060200182810382526021815260200180611da56021913960400191505060405180910390fd5b809150505b92915050565b6000611bb483836040518060400160405280601e81526020017f536166654d6174683a207375627472616374696f6e206f766572666c6f770000815250611c44565b905092915050565b600080828401905083811015611c3a576040517f08c379a000000000000000000000000000000000000000000000000000000000815260040180806020018281038252601b8152602001807f536166654d6174683a206164646974696f6e206f766572666c6f77000000000081525060200191505060405180910390fd5b8091505092915050565b6000838311158290611cf1576040517f08c379a00000000000000000000000000000000000000000000000000000000081526004018080602001828103825283818151815260200191508051906020019080838360005b83811015611cb6578082015181840152602081019050611c9b565b50505050905090810190601f168015611ce35780820380516001836020036101000a031916815260200191505b509250505060405180910390fd5b506000838503905080915050939250505056fe556e697377617056324c6962726172793a20494e53554646494349454e545f4f55545055545f414d4f554e54556e697377617056324c6962726172793a204944454e544943414c5f4144445245535345536f6e6c792074686520696e766f6b65722063616e2063616c6c20746869732066756e6374696f6e556e697377617056324c6962726172793a20494e53554646494349454e545f4c4951554944495459536166654d6174683a206d756c7469706c69636174696f6e206f766572666c6f776f6e6c7920746865206f776e65722063616e2063616c6c20746869732066756e6374696f6e556e697377617056324c6962726172793a20494e53554646494349454e545f494e5055545f414d4f554e54a26469706673582212202863d641ecbe2d0929bc0579554aa752cad633eb5568de22c7ca0e2c6d4e759264736f6c63430006060033",
  "immutableReferences": {},
  "source": "pragma solidity ^0.6.6;\n\nimport \"./IERC20.sol\";\nimport \"./ICERC20.sol\";\nimport \"./ICEther.sol\";\nimport \"./ICToken.sol\";\nimport \"./IWETH.sol\";\nimport \"./SafeMath.sol\";\nimport \"./IUniswapV2Callee.sol\";\nimport \"./IUniswapV2Pair.sol\";\nimport \"./UniswapV2Library.sol\";\n\n\ncontract CompoundLiquidator is IUniswapV2Callee {\n  using SafeMath for uint256;\n\n  modifier onlyOwner(){\n    require(msg.sender == owner, \"only the owner can call this function\");\n    _;\n  }\n\n  modifier onlyInvoker(){//must use tx.origin because invoker calls uniswap which calls this contract\n    require(tx.origin == invoker, \"only the invoker can call this function\");\n    _;\n  }\n\n  mapping (address => address) tokenToCToken;//ERC20 => CERC20\n  address invoker; //the account that can invoke liquidations\n  address owner; //the account that can change admin settings and withdraw funds\n  address payable benefactor; //the account that recieves the withdrawn funds\n  address uniswapFactory = 0x5C69bEe701ef814a2B6a3EDD4B1652CB9cc5aA6f;\n\n  constructor(address inv, address own, address payable ben) public {\n    uint256 MAX_UINT = 2**256 - 1;\n    invoker = inv;\n    owner = own;\n    benefactor = ben;\n    tokenToCToken[address(0x0D8775F648430679A709E98d2b0Cb6250d2887EF)] = address(0x6C8c6b02E7b2BE14d4fA6022Dfd6d75921D90E4E);//BAT\n    tokenToCToken[address(0x6B175474E89094C44Da98b954EedeAC495271d0F)] = address(0x5d3a536E4D6DbD6114cc1Ead35777bAB948E3643);//DAI\n    tokenToCToken[address(0xE41d2489571d322189246DaFA5ebDe1F4699F498)] = address(0xB3319f5D18Bc0D84dD1b4825Dcde5d5f7266d407);//ZRX\n    tokenToCToken[address(0xC02aaA39b223FE8D0A0e5C4F27eAD9083C756Cc2)] = address(0x4Ddc2D193948926D02f9B1fE9e1daa0718270ED5);//ETH\n    tokenToCToken[address(0x1985365e9f78359a9B6AD760e32412f4a445E862)] = address(0x158079Ee67Fce2f58472A96584A73C7Ab9AC95c1);//REP\n    tokenToCToken[address(0xA0b86991c6218b36c1d19D4a2e9Eb0cE3606eB48)] = address(0x39AA39c021dfbaE8faC545936693aC917d5E7563);//USDC\n    tokenToCToken[address(0x2260FAC5E5542a773Aa44fBCfeDf7C193bc2C599)] = address(0xC11b1268C1A384e55C48c2391d8d480264A3A7F4);//WBTC\n    tokenToCToken[address(0xdAC17F958D2ee523a2206206994597C13D831ec7)] = address(0xf650C3d88D12dB855b8bf7D11Be6C55A4e07dCC9);//USDT\n\n\n\n    address payable[2][20] memory tokens = [\n      [0x0D8775F648430679A709E98d2b0Cb6250d2887EF, 0xB6909B960DbbE7392D405429eB2b3649752b4838],\n      \n      [0x6B175474E89094C44Da98b954EedeAC495271d0F, 0xA478c2975Ab1Ea89e8196811F51A7B7Ade33eB11],\n      [0x6B175474E89094C44Da98b954EedeAC495271d0F, 0xAE461cA67B15dc8dc81CE7615e0320dA1A9aB8D5],\n      [0x6B175474E89094C44Da98b954EedeAC495271d0F, 0x231B7589426Ffe1b75405526fC32aC09D44364c4],\n      \n      [0xE41d2489571d322189246DaFA5ebDe1F4699F498, 0x231B7589426Ffe1b75405526fC32aC09D44364c4],\n      //WETH\n      [0xC02aaA39b223FE8D0A0e5C4F27eAD9083C756Cc2, 0xA478c2975Ab1Ea89e8196811F51A7B7Ade33eB11],\n      [0xC02aaA39b223FE8D0A0e5C4F27eAD9083C756Cc2, 0xec2D2240D02A8cf63C3fA0B7d2C5a3169a319496],\n      [0xC02aaA39b223FE8D0A0e5C4F27eAD9083C756Cc2, 0xB4e16d0168e52d35CaCD2c6185b44281Ec28C9Dc],\n      [0xC02aaA39b223FE8D0A0e5C4F27eAD9083C756Cc2, 0xBb2b8038a1640196FbE3e38816F3e67Cba72D940],\n      [0xC02aaA39b223FE8D0A0e5C4F27eAD9083C756Cc2, 0xB6909B960DbbE7392D405429eB2b3649752b4838],\n      [0xC02aaA39b223FE8D0A0e5C4F27eAD9083C756Cc2, 0xc6F348dd3B91a56D117ec0071C1e9b83C0996De4],\n      [0xC02aaA39b223FE8D0A0e5C4F27eAD9083C756Cc2, 0x0d4a11d5EEaaC28EC3F61d100daF4d40471f1852],\n\n\n      [0x1985365e9f78359a9B6AD760e32412f4a445E862, 0xec2D2240D02A8cf63C3fA0B7d2C5a3169a319496],\n\n      [0xA0b86991c6218b36c1d19D4a2e9Eb0cE3606eB48, 0xB4e16d0168e52d35CaCD2c6185b44281Ec28C9Dc],\n      [0xA0b86991c6218b36c1d19D4a2e9Eb0cE3606eB48, 0x3041CbD36888bECc7bbCBc0045E3B1f144466f5f],\n      [0xA0b86991c6218b36c1d19D4a2e9Eb0cE3606eB48, 0xAE461cA67B15dc8dc81CE7615e0320dA1A9aB8D5],\n\n      [0x2260FAC5E5542a773Aa44fBCfeDf7C193bc2C599, 0xBb2b8038a1640196FbE3e38816F3e67Cba72D940],\n      [0x2260FAC5E5542a773Aa44fBCfeDf7C193bc2C599, 0x231B7589426Ffe1b75405526fC32aC09D44364c4],\n\n      [0xdAC17F958D2ee523a2206206994597C13D831ec7, 0x3041CbD36888bECc7bbCBc0045E3B1f144466f5f],\n      [0xdAC17F958D2ee523a2206206994597C13D831ec7, 0x0d4a11d5EEaaC28EC3F61d100daF4d40471f1852]\n    ];\n    address payable[8] memory CTokens = [\n      0x0D8775F648430679A709E98d2b0Cb6250d2887EF,\n      0x6B175474E89094C44Da98b954EedeAC495271d0F,\n      0xE41d2489571d322189246DaFA5ebDe1F4699F498,\n      0xC02aaA39b223FE8D0A0e5C4F27eAD9083C756Cc2,\n      0x1985365e9f78359a9B6AD760e32412f4a445E862,\n      0xA0b86991c6218b36c1d19D4a2e9Eb0cE3606eB48,\n      0x2260FAC5E5542a773Aa44fBCfeDf7C193bc2C599,\n      0xdAC17F958D2ee523a2206206994597C13D831ec7\n    ];\n\n    for(uint256 i = 0; i < tokens.length; i++) {\n      IERC20(tokens[i][0]).approve(tokens[i][1], MAX_UINT);\n    }\n    for(uint256 j = 0; j < CTokens.length; j++) {\n      IERC20(CTokens[j]).approve(tokenToCToken[CTokens[j]], MAX_UINT);\n    }\n  }\n\n\n  function setInvoker(address newInvoker) public onlyOwner {\n    invoker = newInvoker;\n  }\n\n  function setOwner(address newOwner) public onlyOwner {\n    owner = newOwner;\n  }\n\n  function setBenefactor(address payable newBenefactor) public onlyOwner {\n    benefactor = newBenefactor;\n  }\n\n  function withdrawETH() public onlyOwner {\n    benefactor.transfer(address(this).balance);\n  }\n\n  function withdrawToken(address token) public onlyOwner {\n\n  }\n\n  //to add new tokens\n  function approveAddress(address token, address addressToApprove) public onlyOwner {\n    IERC20(token).approve(addressToApprove, 115792089237316195423570985008687907853269984665640564039457584007913129639935);\n  }\n\n  function uniswapV2Call(\n    address sender,\n    uint amount0,\n    uint amount1,\n    bytes calldata data\n  ) external override onlyInvoker{\n    //decode calldata\n    (address liquidatee, address repayToken, address seizeToken, uint maxUniswapPayment, address[] memory route, uint blockNumber) = abi.decode(data, (address, address, address, uint, address[], uint));\n    \n    // //note balances beginning transaction\n    // uint repayBalance;//we may not need to check repayBalance\n    // uint seizeBalance;\n    // if(repayToken == address(0xC02aaA39b223FE8D0A0e5C4F27eAD9083C756Cc2)){//if the repay token is ETH\n    //   repayBalance = address(this).balance;\n    // }\n    // else{\n    //   repayBalance = IERC20(repayToken).balanceOf(address(this));\n    // }\n\n    // if(seizeToken == address(0xC02aaA39b223FE8D0A0e5C4F27eAD9083C756Cc2)){//if the seize token is ETH\n    //   seizeBalance = address(this).balance;\n    // }\n    // else{\n    //   seizeBalance = IERC20(seizeToken).balanceOf(address(this));\n    // }\n\n    assert(block.number == blockNumber);\n//~~~~~~~~~~~~~~~~~~~~~~~~~~~~~~~~~~~~~~~~~~~~~~~~~END PRE-CRITICAL OP~~~~~~~~~~~~~~~~~~~~~~~~~~~~~~~~~~~~~~~~~~~~~~~~~~~~~~~~\n    //Swap accross route to repay Token\n    uint amountIn = amount0 > amount1 ? amount0 : amount1;//assuming that amount1 and 0 are the parameters for the first swap\n    uint[] memory amountsOut = UniswapV2Library.getAmountsOut(uniswapFactory, amountIn, route);\n    uint amount0Out = 0;\n    uint amount1Out = 0;\n    for(uint8 i = 0; i < route.length - 1; i++){\n      (address token0,) = UniswapV2Library.sortTokens(route[i], route[i+1]);\n      if(token0 == route[i]){\n        amount0Out = amountsOut[i];\n        amount1Out = 0;\n      }\n      else{\n        amount1Out = amountsOut[i];\n        amount0Out = 0;\n      }\n      IUniswapV2Pair(UniswapV2Library.pairFor(uniswapFactory, route[i], route[i+1])).swap(amount0Out, amount1Out, address(this), \"\");\n    }\n    uint repayAmount = amountsOut[amountsOut.length - 1];\n\n    //liquidate\n    if(repayToken == address(0xC02aaA39b223FE8D0A0e5C4F27eAD9083C756Cc2)){//if the repay token is ETH\n      IWETH(0xC02aaA39b223FE8D0A0e5C4F27eAD9083C756Cc2).withdraw(repayAmount);//swap WETH for ETH\n      ICEther(tokenToCToken[repayToken]).liquidateBorrow.value(repayAmount)(liquidatee, seizeToken);//send liquidate transaction to the repayToken's respective CToken\n    }\n    else{\n      ICERC20(tokenToCToken[repayToken]).liquidateBorrow(liquidatee, repayAmount, seizeToken);\n    }\n\n    //repay\n    (address tokenA,) = UniswapV2Library.sortTokens(seizeToken, route[0]);\n    uint reserveIn;\n    uint reserveOut;\n    if(tokenA == seizeToken){\n      (reserveIn, reserveOut) = UniswapV2Library.getReserves(uniswapFactory, seizeToken, route[0]);\n    }\n    else{\n      (reserveOut, reserveIn) = UniswapV2Library.getReserves(uniswapFactory, seizeToken, route[0]);\n    }\n    uint uniswapRepay = UniswapV2Library.getAmountIn(amountIn, reserveIn, reserveOut);\n\n    //redeem and repay\n    ICToken(tokenToCToken[seizeToken]).redeemUnderlying(uniswapRepay);\n    assert(IERC20(tokenToCToken[seizeToken]).transfer(msg.sender, uniswapRepay));\n\n  }\n}",
  "sourcePath": "/home/belvis/ethereum/compound-Liquidator/contracts/solc6/liquidator.sol",
  "compiler": {
    "name": "solc",
    "version": "0.6.6+commit.6c089d02.Emscripten.clang"
  },
  "schemaVersion": "3.2.2-next.0",
  "updatedAt": "2020-08-10T22:57:24.478Z",
  "devdoc": {
    "methods": {}
  },
  "userdoc": {
    "methods": {}
  }
}