{
  "contractName": "PriceOracle",
  "abi": [
    {
      "constant": true,
      "inputs": [],
      "name": "anchorAdmin",
      "outputs": [
        {
          "name": "",
          "type": "address"
        }
      ],
      "payable": false,
      "stateMutability": "view",
      "type": "function"
    },
    {
      "constant": true,
      "inputs": [],
      "name": "maxSwingMantissa",
      "outputs": [
        {
          "name": "",
          "type": "uint256"
        }
      ],
      "payable": false,
      "stateMutability": "view",
      "type": "function"
    },
    {
      "constant": true,
      "inputs": [
        {
          "name": "",
          "type": "address"
        }
      ],
      "name": "_assetPrices",
      "outputs": [
        {
          "name": "mantissa",
          "type": "uint256"
        }
      ],
      "payable": false,
      "stateMutability": "view",
      "type": "function"
    },
    {
      "constant": true,
      "inputs": [],
      "name": "pendingAnchorAdmin",
      "outputs": [
        {
          "name": "",
          "type": "address"
        }
      ],
      "payable": false,
      "stateMutability": "view",
      "type": "function"
    },
    {
      "constant": true,
      "inputs": [],
      "name": "numBlocksPerPeriod",
      "outputs": [
        {
          "name": "",
          "type": "uint256"
        }
      ],
      "payable": false,
      "stateMutability": "view",
      "type": "function"
    },
    {
      "constant": true,
      "inputs": [
        {
          "name": "",
          "type": "address"
        }
      ],
      "name": "readers",
      "outputs": [
        {
          "name": "",
          "type": "address"
        }
      ],
      "payable": false,
      "stateMutability": "view",
      "type": "function"
    },
    {
      "constant": true,
      "inputs": [],
      "name": "paused",
      "outputs": [
        {
          "name": "",
          "type": "bool"
        }
      ],
      "payable": false,
      "stateMutability": "view",
      "type": "function"
    },
    {
      "constant": true,
      "inputs": [
        {
          "name": "",
          "type": "address"
        }
      ],
      "name": "anchors",
      "outputs": [
        {
          "name": "period",
          "type": "uint256"
        },
        {
          "name": "priceMantissa",
          "type": "uint256"
        }
      ],
      "payable": false,
      "stateMutability": "view",
      "type": "function"
    },
    {
      "constant": true,
      "inputs": [],
      "name": "poster",
      "outputs": [
        {
          "name": "",
          "type": "address"
        }
      ],
      "payable": false,
      "stateMutability": "view",
      "type": "function"
    },
    {
      "constant": true,
      "inputs": [
        {
          "name": "",
          "type": "address"
        }
      ],
      "name": "pendingAnchors",
      "outputs": [
        {
          "name": "",
          "type": "uint256"
        }
      ],
      "payable": false,
      "stateMutability": "view",
      "type": "function"
    },
    {
      "constant": true,
      "inputs": [],
      "name": "maxSwing",
      "outputs": [
        {
          "name": "mantissa",
          "type": "uint256"
        }
      ],
      "payable": false,
      "stateMutability": "view",
      "type": "function"
    },
    {
      "inputs": [
        {
          "name": "_poster",
          "type": "address"
        },
        {
          "name": "addr0",
          "type": "address"
        },
        {
          "name": "reader0",
          "type": "address"
        },
        {
          "name": "addr1",
          "type": "address"
        },
        {
          "name": "reader1",
          "type": "address"
        }
      ],
      "payable": false,
      "stateMutability": "nonpayable",
      "type": "constructor"
    },
    {
      "payable": true,
      "stateMutability": "payable",
      "type": "fallback"
    },
    {
      "anonymous": false,
      "inputs": [
        {
          "indexed": false,
          "name": "msgSender",
          "type": "address"
        },
        {
          "indexed": false,
          "name": "asset",
          "type": "address"
        },
        {
          "indexed": false,
          "name": "error",
          "type": "uint256"
        },
        {
          "indexed": false,
          "name": "info",
          "type": "uint256"
        },
        {
          "indexed": false,
          "name": "detail",
          "type": "uint256"
        }
      ],
      "name": "OracleFailure",
      "type": "event"
    },
    {
      "anonymous": false,
      "inputs": [
        {
          "indexed": false,
          "name": "anchorAdmin",
          "type": "address"
        },
        {
          "indexed": false,
          "name": "asset",
          "type": "address"
        },
        {
          "indexed": false,
          "name": "oldScaledPrice",
          "type": "uint256"
        },
        {
          "indexed": false,
          "name": "newScaledPrice",
          "type": "uint256"
        }
      ],
      "name": "NewPendingAnchor",
      "type": "event"
    },
    {
      "anonymous": false,
      "inputs": [
        {
          "indexed": false,
          "name": "asset",
          "type": "address"
        },
        {
          "indexed": false,
          "name": "previousPriceMantissa",
          "type": "uint256"
        },
        {
          "indexed": false,
          "name": "requestedPriceMantissa",
          "type": "uint256"
        },
        {
          "indexed": false,
          "name": "newPriceMantissa",
          "type": "uint256"
        }
      ],
      "name": "PricePosted",
      "type": "event"
    },
    {
      "anonymous": false,
      "inputs": [
        {
          "indexed": false,
          "name": "asset",
          "type": "address"
        },
        {
          "indexed": false,
          "name": "requestedPriceMantissa",
          "type": "uint256"
        },
        {
          "indexed": false,
          "name": "anchorPriceMantissa",
          "type": "uint256"
        },
        {
          "indexed": false,
          "name": "cappedPriceMantissa",
          "type": "uint256"
        }
      ],
      "name": "CappedPricePosted",
      "type": "event"
    },
    {
      "anonymous": false,
      "inputs": [
        {
          "indexed": false,
          "name": "newState",
          "type": "bool"
        }
      ],
      "name": "SetPaused",
      "type": "event"
    },
    {
      "anonymous": false,
      "inputs": [
        {
          "indexed": false,
          "name": "oldPendingAnchorAdmin",
          "type": "address"
        },
        {
          "indexed": false,
          "name": "newPendingAnchorAdmin",
          "type": "address"
        }
      ],
      "name": "NewPendingAnchorAdmin",
      "type": "event"
    },
    {
      "anonymous": false,
      "inputs": [
        {
          "indexed": false,
          "name": "oldAnchorAdmin",
          "type": "address"
        },
        {
          "indexed": false,
          "name": "newAnchorAdmin",
          "type": "address"
        }
      ],
      "name": "NewAnchorAdmin",
      "type": "event"
    },
    {
      "anonymous": false,
      "inputs": [
        {
          "indexed": false,
          "name": "error",
          "type": "uint256"
        },
        {
          "indexed": false,
          "name": "info",
          "type": "uint256"
        },
        {
          "indexed": false,
          "name": "detail",
          "type": "uint256"
        }
      ],
      "name": "Failure",
      "type": "event"
    },
    {
      "constant": false,
      "inputs": [
        {
          "name": "asset",
          "type": "address"
        },
        {
          "name": "newScaledPrice",
          "type": "uint256"
        }
      ],
      "name": "_setPendingAnchor",
      "outputs": [
        {
          "name": "",
          "type": "uint256"
        }
      ],
      "payable": false,
      "stateMutability": "nonpayable",
      "type": "function"
    },
    {
      "constant": false,
      "inputs": [
        {
          "name": "requestedState",
          "type": "bool"
        }
      ],
      "name": "_setPaused",
      "outputs": [
        {
          "name": "",
          "type": "uint256"
        }
      ],
      "payable": false,
      "stateMutability": "nonpayable",
      "type": "function"
    },
    {
      "constant": false,
      "inputs": [
        {
          "name": "newPendingAnchorAdmin",
          "type": "address"
        }
      ],
      "name": "_setPendingAnchorAdmin",
      "outputs": [
        {
          "name": "",
          "type": "uint256"
        }
      ],
      "payable": false,
      "stateMutability": "nonpayable",
      "type": "function"
    },
    {
      "constant": false,
      "inputs": [],
      "name": "_acceptAnchorAdmin",
      "outputs": [
        {
          "name": "",
          "type": "uint256"
        }
      ],
      "payable": false,
      "stateMutability": "nonpayable",
      "type": "function"
    },
    {
      "constant": true,
      "inputs": [
        {
          "name": "asset",
          "type": "address"
        }
      ],
      "name": "assetPrices",
      "outputs": [
        {
          "name": "",
          "type": "uint256"
        }
      ],
      "payable": false,
      "stateMutability": "view",
      "type": "function"
    },
    {
      "constant": true,
      "inputs": [
        {
          "name": "asset",
          "type": "address"
        }
      ],
      "name": "getPrice",
      "outputs": [
        {
          "name": "",
          "type": "uint256"
        }
      ],
      "payable": false,
      "stateMutability": "view",
      "type": "function"
    },
    {
      "constant": false,
      "inputs": [
        {
          "name": "asset",
          "type": "address"
        },
        {
          "name": "requestedPriceMantissa",
          "type": "uint256"
        }
      ],
      "name": "setPrice",
      "outputs": [
        {
          "name": "",
          "type": "uint256"
        }
      ],
      "payable": false,
      "stateMutability": "nonpayable",
      "type": "function"
    },
    {
      "constant": false,
      "inputs": [
        {
          "name": "assets",
          "type": "address[]"
        },
        {
          "name": "requestedPriceMantissas",
          "type": "uint256[]"
        }
      ],
      "name": "setPrices",
      "outputs": [
        {
          "name": "",
          "type": "uint256[]"
        }
      ],
      "payable": false,
      "stateMutability": "nonpayable",
      "type": "function"
    }
  ],
  "bytecode": "0x60806040523480156200001157600080fd5b5060405160a08062002722833981018060405281019080805190602001909291908051906020019092919080519060200190929190805190602001909291908051906020019092919050505033600360006101000a81548173ffffffffffffffffffffffffffffffffffffffff021916908373ffffffffffffffffffffffffffffffffffffffff16021790555084600560006101000a81548173ffffffffffffffffffffffffffffffffffffffff021916908373ffffffffffffffffffffffffffffffffffffffff16021790555060206040519081016040528067016345785d8a0000815250600660008201518160000155905050600073ffffffffffffffffffffffffffffffffffffffff168473ffffffffffffffffffffffffffffffffffffffff1614806200016e57508173ffffffffffffffffffffffffffffffffffffffff168473ffffffffffffffffffffffffffffffffffffffff1614155b15156200017757fe5b600073ffffffffffffffffffffffffffffffffffffffff168473ffffffffffffffffffffffffffffffffffffffff161415156200026c57600073ffffffffffffffffffffffffffffffffffffffff168373ffffffffffffffffffffffffffffffffffffffff1614151515620001e857fe5b82600160008673ffffffffffffffffffffffffffffffffffffffff1673ffffffffffffffffffffffffffffffffffffffff16815260200190815260200160002060006101000a81548173ffffffffffffffffffffffffffffffffffffffff021916908373ffffffffffffffffffffffffffffffffffffffff160217905550620002a6565b600073ffffffffffffffffffffffffffffffffffffffff168373ffffffffffffffffffffffffffffffffffffffff16141515620002a557fe5b5b600073ffffffffffffffffffffffffffffffffffffffff168273ffffffffffffffffffffffffffffffffffffffff161415156200039b57600073ffffffffffffffffffffffffffffffffffffffff168173ffffffffffffffffffffffffffffffffffffffff16141515156200031757fe5b80600160008473ffffffffffffffffffffffffffffffffffffffff1673ffffffffffffffffffffffffffffffffffffffff16815260200190815260200160002060006101000a81548173ffffffffffffffffffffffffffffffffffffffff021916908373ffffffffffffffffffffffffffffffffffffffff160217905550620003d5565b600073ffffffffffffffffffffffffffffffffffffffff168173ffffffffffffffffffffffffffffffffffffffff16141515620003d457fe5b5b505050505061233880620003ea6000396000f300608060405260043610610106576000357c0100000000000000000000000000000000000000000000000000000000900463ffffffff168062e4768b1461010b57806308f318571461016c5780630c9c6301146101c3578063183f3444146101ee57806326617c281461024557806341976e09146102885780634352fa9f146102df578063451b1e3a146103dd578063485feabe1461043457806351e59ffb1461045f5780635c975abb146104e25780635e9a523c14610511578063692374e31461056857806380959721146105c65780639964622c1461061d5780639e8c4d9514610674578063c5faf1d5146106cb578063ccb13cbd146106f6578063de9d0e8514610721575b600080fd5b34801561011757600080fd5b50610156600480360381019080803573ffffffffffffffffffffffffffffffffffffffff16906020019092919080359060200190929190505050610782565b6040518082815260200191505060405180910390f35b34801561017857600080fd5b50610181610802565b604051808273ffffffffffffffffffffffffffffffffffffffff1673ffffffffffffffffffffffffffffffffffffffff16815260200191505060405180910390f35b3480156101cf57600080fd5b506101d8610828565b6040518082815260200191505060405180910390f35b3480156101fa57600080fd5b5061022f600480360381019080803573ffffffffffffffffffffffffffffffffffffffff169060200190929190505050610834565b6040518082815260200191505060405180910390f35b34801561025157600080fd5b50610272600480360381019080803515159060200190929190505050610852565b6040518082815260200191505060405180910390f35b34801561029457600080fd5b506102c9600480360381019080803573ffffffffffffffffffffffffffffffffffffffff169060200190929190505050610928565b6040518082815260200191505060405180910390f35b3480156102eb57600080fd5b50610386600480360381019080803590602001908201803590602001908080602002602001604051908101604052809392919081815260200183836020028082843782019150505050505091929192908035906020019082018035906020019080806020026020016040519081016040528093929190818152602001838360200280828437820191505050505050919291929050505061093a565b6040518080602001828103825283818151815260200191508051906020019060200280838360005b838110156103c95780820151818401526020810190506103ae565b505050509050019250505060405180910390f35b3480156103e957600080fd5b506103f2610b30565b604051808273ffffffffffffffffffffffffffffffffffffffff1673ffffffffffffffffffffffffffffffffffffffff16815260200191505060405180910390f35b34801561044057600080fd5b50610449610b56565b6040518082815260200191505060405180910390f35b34801561046b57600080fd5b506104a0600480360381019080803573ffffffffffffffffffffffffffffffffffffffff169060200190929190505050610b5b565b604051808273ffffffffffffffffffffffffffffffffffffffff1673ffffffffffffffffffffffffffffffffffffffff16815260200191505060405180910390f35b3480156104ee57600080fd5b506104f7610b8e565b604051808215151515815260200191505060405180910390f35b34801561051d57600080fd5b50610552600480360381019080803573ffffffffffffffffffffffffffffffffffffffff169060200190929190505050610ba0565b6040518082815260200191505060405180910390f35b34801561057457600080fd5b506105a9600480360381019080803573ffffffffffffffffffffffffffffffffffffffff169060200190929190505050610e18565b604051808381526020018281526020019250505060405180910390f35b3480156105d257600080fd5b506105db610e3c565b604051808273ffffffffffffffffffffffffffffffffffffffff1673ffffffffffffffffffffffffffffffffffffffff16815260200191505060405180910390f35b34801561062957600080fd5b5061065e600480360381019080803573ffffffffffffffffffffffffffffffffffffffff169060200190929190505050610e62565b6040518082815260200191505060405180910390f35b34801561068057600080fd5b506106b5600480360381019080803573ffffffffffffffffffffffffffffffffffffffff169060200190929190505050610fe4565b6040518082815260200191505060405180910390f35b3480156106d757600080fd5b506106e0610ffc565b6040518082815260200191505060405180910390f35b34801561070257600080fd5b5061070b611008565b6040518082815260200191505060405180910390f35b34801561072d57600080fd5b5061076c600480360381019080803573ffffffffffffffffffffffffffffffffffffffff169060200190929190803590602001909291905050506111ec565b6040518082815260200191505060405180910390f35b6000600560009054906101000a900473ffffffffffffffffffffffffffffffffffffffff1673ffffffffffffffffffffffffffffffffffffffff163373ffffffffffffffffffffffffffffffffffffffff161415156107ef576107e8836001600861139e565b90506107fc565b6107f9838361147b565b90505b92915050565b600360009054906101000a900473ffffffffffffffffffffffffffffffffffffffff1681565b67016345785d8a000081565b60026020528060005260406000206000915090508060000154905081565b6000600360009054906101000a900473ffffffffffffffffffffffffffffffffffffffff1673ffffffffffffffffffffffffffffffffffffffff163373ffffffffffffffffffffffffffffffffffffffff161415156108bf576108b8600060018061139e565b9050610923565b816000806101000a81548160ff0219169083151502179055507f3c70af01296aef045b2f5c9d3c30b05d4428fd257145b9c7fcd76418e65b598082604051808215151515815260200191505060405180910390a16000601781111561092057fe5b90505b919050565b600061093382610ba0565b9050919050565b6060600080606060008651935085519250600560009054906101000a900473ffffffffffffffffffffffffffffffffffffffff1673ffffffffffffffffffffffffffffffffffffffff163373ffffffffffffffffffffffffffffffffffffffff16141515610a085760016040519080825280602002602001820160405280156109d25781602001602082028038833980820191505090505b5091506109e360006001600861139e565b8260008151811015156109f257fe5b9060200190602002018181525050819450610b26565b6000841480610a175750838314155b15610a82576001604051908082528060200260200182016040528015610a4c5781602001602082028038833980820191505090505b509150610a5d60006002600a61139e565b826000815181101515610a6c57fe5b9060200190602002018181525050819450610b26565b83604051908082528060200260200182016040528015610ab15781602001602082028038833980820191505090505b509150600090505b83811015610b2257610af98782815181101515610ad257fe5b906020019060200201518783815181101515610aea57fe5b9060200190602002015161147b565b8282815181101515610b0757fe5b90602001906020020181815250508080600101915050610ab9565b8194505b5050505092915050565b600460009054906101000a900473ffffffffffffffffffffffffffffffffffffffff1681565b60f081565b60016020528060005260406000206000915054906101000a900473ffffffffffffffffffffffffffffffffffffffff1681565b6000809054906101000a900460ff1681565b600080600080610bae61228a565b6000809054906101000a900460ff1615610bcb5760009450610e0f565b600073ffffffffffffffffffffffffffffffffffffffff16600160008873ffffffffffffffffffffffffffffffffffffffff1673ffffffffffffffffffffffffffffffffffffffff16815260200190815260200160002060009054906101000a900473ffffffffffffffffffffffffffffffffffffffff1673ffffffffffffffffffffffffffffffffffffffff16141515610dc957600160008773ffffffffffffffffffffffffffffffffffffffff1673ffffffffffffffffffffffffffffffffffffffff16815260200190815260200160002060009054906101000a900473ffffffffffffffffffffffffffffffffffffffff1673ffffffffffffffffffffffffffffffffffffffff166359e02dd76040518163ffffffff167c01000000000000000000000000000000000000000000000000000000000281526004016040805180830381600087803b158015610d2257600080fd5b505af1158015610d36573d6000803e3d6000fd5b505050506040513d6040811015610d4c57600080fd5b810190808051906020019092919080519060200190929190505050935093508215610dc057610d87670de0b6b3a76400008560019004611ad3565b9150915060006017811115610d9857fe5b826017811115610da457fe5b141515610db45760009450610e0f565b80600001519450610e0f565b60009450610e0f565b600260008773ffffffffffffffffffffffffffffffffffffffff1673ffffffffffffffffffffffffffffffffffffffff1681526020019081526020016000206000015494505b50505050919050565b60076020528060005260406000206000915090508060000154908060010154905082565b600560009054906101000a900473ffffffffffffffffffffffffffffffffffffffff1681565b600080600360009054906101000a900473ffffffffffffffffffffffffffffffffffffffff1673ffffffffffffffffffffffffffffffffffffffff163373ffffffffffffffffffffffffffffffffffffffff16141515610ed157610eca60006001600261139e565b9150610fde565b600460009054906101000a900473ffffffffffffffffffffffffffffffffffffffff16905082600460006101000a81548173ffffffffffffffffffffffffffffffffffffffff021916908373ffffffffffffffffffffffffffffffffffffffff1602179055507f6c773973d5bcf264b509f4194ceb99e891251f6aabb325523a863c282958b13e8184604051808373ffffffffffffffffffffffffffffffffffffffff1673ffffffffffffffffffffffffffffffffffffffff1681526020018273ffffffffffffffffffffffffffffffffffffffff1673ffffffffffffffffffffffffffffffffffffffff1681526020019250505060405180910390a160006017811115610fdb57fe5b91505b50919050565b60086020528060005260406000206000915090505481565b60068060000154905081565b600080600460009054906101000a900473ffffffffffffffffffffffffffffffffffffffff1673ffffffffffffffffffffffffffffffffffffffff163373ffffffffffffffffffffffffffffffffffffffff161415156110775761107060006001600061139e565b91506111e8565b600360009054906101000a900473ffffffffffffffffffffffffffffffffffffffff169050600460009054906101000a900473ffffffffffffffffffffffffffffffffffffffff16600360006101000a81548173ffffffffffffffffffffffffffffffffffffffff021916908373ffffffffffffffffffffffffffffffffffffffff1602179055506000600460006101000a81548173ffffffffffffffffffffffffffffffffffffffff021916908373ffffffffffffffffffffffffffffffffffffffff1602179055507fbef9248fe57ae972dd47833f68c43f0b3b2d14217612dfbc804a520a23730d468133604051808373ffffffffffffffffffffffffffffffffffffffff1673ffffffffffffffffffffffffffffffffffffffff1681526020018273ffffffffffffffffffffffffffffffffffffffff1673ffffffffffffffffffffffffffffffffffffffff1681526020019250505060405180910390a1600060178111156111e557fe5b91505b5090565b600080600360009054906101000a900473ffffffffffffffffffffffffffffffffffffffff1673ffffffffffffffffffffffffffffffffffffffff163373ffffffffffffffffffffffffffffffffffffffff1614151561125a57611253846001600361139e565b9150611397565b600860008573ffffffffffffffffffffffffffffffffffffffff1673ffffffffffffffffffffffffffffffffffffffff16815260200190815260200160002054905082600860008673ffffffffffffffffffffffffffffffffffffffff1673ffffffffffffffffffffffffffffffffffffffff168152602001908152602001600020819055507ff0aa20c29c1f8e751bfe0a78bc49a520ed14f2dab274087d90d1341d8b76af5c33858386604051808573ffffffffffffffffffffffffffffffffffffffff1673ffffffffffffffffffffffffffffffffffffffff1681526020018473ffffffffffffffffffffffffffffffffffffffff1673ffffffffffffffffffffffffffffffffffffffff16815260200183815260200182815260200194505050505060405180910390a16000600281111561139457fe5b91505b5092915050565b60007f96f29b65cebbd6816352fb242b6af7180b49e8a09e19e589225d35bc8444f0b733858560028111156113cf57fe5b85600b8111156113db57fe5b6000604051808673ffffffffffffffffffffffffffffffffffffffff1673ffffffffffffffffffffffffffffffffffffffff1681526020018573ffffffffffffffffffffffffffffffffffffffff1673ffffffffffffffffffffffffffffffffffffffff1681526020018481526020018381526020018281526020019550505050505060405180910390a182600281111561147257fe5b90509392505050565b60008061148661229e565b6000600160f04381151561149657fe5b0401826080018181525050600860008773ffffffffffffffffffffffffffffffffffffffff1673ffffffffffffffffffffffffffffffffffffffff168152602001908152602001600020548260e0018181525050602060405190810160405280868152508260000181905250600073ffffffffffffffffffffffffffffffffffffffff16600160008873ffffffffffffffffffffffffffffffffffffffff1673ffffffffffffffffffffffffffffffffffffffff16815260200190815260200160002060009054906101000a900473ffffffffffffffffffffffffffffffffffffffff1673ffffffffffffffffffffffffffffffffffffffff161415156115ab576115a4866002600b61139e565b9350611aca565b60008260e0015114151561168d5760008260600181815250506020604051908101604052808360e0015181525082604001819052506115f282604001518360000151611ba8565b8090508360200181905281945050506000601781111561160e57fe5b83601781111561161a57fe5b1415156116415761163a866002600486601781111561163557fe5b611c50565b9350611aca565b6116668260200151600660206040519081016040529081600082015481525050611d2d565b15611688576116818660026006856020015160000151611c50565b9350611aca565b6117eb565b600760008773ffffffffffffffffffffffffffffffffffffffff1673ffffffffffffffffffffffffffffffffffffffff16815260200190815260200160002060000154826060018181525050602060405190810160405280600760008973ffffffffffffffffffffffffffffffffffffffff1673ffffffffffffffffffffffffffffffffffffffff168152602001908152602001600020600101548152508260400181905250600082606001511415156117d15761175382604001518360000151611d42565b8090508460a0018560000182905282151515158152508295505050506000601781111561177c57fe5b83601781111561178857fe5b1415156117af576117a886600260058660178111156117a357fe5b611c50565b9350611aca565b8160a00151156117cc578160400151600001518260c00181815250505b6117ea565b6020604051908101604052808681525082604001819052505b5b6117f88260400151611f45565b156118115761180a866002600761139e565b9350611aca565b61181e8260000151611f45565b1561183757611830866002600961139e565b9350611aca565b6000600860008873ffffffffffffffffffffffffffffffffffffffff1673ffffffffffffffffffffffffffffffffffffffff168152602001908152602001600020541415156118c6576000600860008873ffffffffffffffffffffffffffffffffffffffff1673ffffffffffffffffffffffffffffffffffffffff168152602001908152602001600020819055505b81606001518260800151111561194e57604080519081016040528083608001518152602001836000015160000151815250600760008873ffffffffffffffffffffffffffffffffffffffff1673ffffffffffffffffffffffffffffffffffffffff16815260200190815260200160002060008201518160000155602082015181600101559050505b600260008773ffffffffffffffffffffffffffffffffffffffff1673ffffffffffffffffffffffffffffffffffffffff1681526020019081526020016000206000015490506119a586836000015160000151611f55565b7fdd71a1d19fcba687442a1d5c58578f1e409af71a79d10fd95a4d66efd8fa9ae7868287856000015160000151604051808573ffffffffffffffffffffffffffffffffffffffff1673ffffffffffffffffffffffffffffffffffffffff16815260200184815260200183815260200182815260200194505050505060405180910390a18160a0015115611aba577f7221f7a2708437039cc63319145b6b873a40594b9782a3bee45b975e2f3b0f6886868460c00151856000015160000151604051808573ffffffffffffffffffffffffffffffffffffffff1673ffffffffffffffffffffffffffffffffffffffff16815260200184815260200183815260200182815260200194505050505060405180910390a15b60006002811115611ac757fe5b93505b50505092915050565b6000611add61228a565b600080600080611af588670de0b6b3a7640000611fb5565b9350935060006017811115611b0657fe5b846017811115611b1257fe5b141515611b375783602060405190810160405280600081525080905095509550611b9d565b611b41838861200a565b9150915060006017811115611b5257fe5b826017811115611b5e57fe5b141515611b835781602060405190810160405280600081525080905095509550611b9d565b600060206040519081016040528083815250809050955095505b505050509250929050565b6000611bb261228a565b611bba61228a565b6000611bc68686611d2d565b15611c0457611bd58686612040565b809350819250505060006017811115611bea57fe5b816017811115611bf657fe5b141515611bff57fe5b611c39565b611c0e8587612040565b809350819250505060006017811115611c2357fe5b816017811115611c2f57fe5b141515611c3857fe5b5b611c438287612084565b9350935050509250929050565b60007f96f29b65cebbd6816352fb242b6af7180b49e8a09e19e589225d35bc8444f0b73386866002811115611c8157fe5b86600b811115611c8d57fe5b86604051808673ffffffffffffffffffffffffffffffffffffffff1673ffffffffffffffffffffffffffffffffffffffff1681526020018573ffffffffffffffffffffffffffffffffffffffff1673ffffffffffffffffffffffffffffffffffffffff1681526020018481526020018381526020018281526020019550505050505060405180910390a1836002811115611d2357fe5b9050949350505050565b60008160000151836000015111905092915050565b600080611d4d61228a565b611d5561228a565b611d5d61228a565b611d6561228a565b611d6d61228a565b611d7561228a565b6000602060405190810160405280670de0b6b3a76400008152509550611db2866006602060405190810160405290816000820154815250506120ab565b809650819250505060006017811115611dc757fe5b816017811115611dd357fe5b141515611dfc578060006020604051908101604052806000815250809050985098509850611f38565b611e068b866120ef565b809450819250505060006017811115611e1b57fe5b816017811115611e2757fe5b141515611e50578060006020604051908101604052806000815250809050985098509850611f38565b611e5a8a84611d2d565b15611e6f576000600184985098509850611f38565b611e9086600660206040519081016040529081600082015481525050612040565b809550819250505060006017811115611ea557fe5b816017811115611eb157fe5b141515611eda578060006020604051908101604052806000815250809050985098509850611f38565b611ee48b856120ef565b809350819250505060006017811115611ef957fe5b816017811115611f0557fe5b141515611f0e57fe5b611f188a83612215565b15611f2d576000600183985098509850611f38565b6000808b9850985098505b5050505050509250925092565b6000808260000151149050919050565b60206040519081016040528082815250600260008473ffffffffffffffffffffffffffffffffffffffff1673ffffffffffffffffffffffffffffffffffffffff168152602001908152602001600020600082015181600001559050505050565b600080600080851415611fd15760008080905092509250612002565b8385029050838582811515611fe257fe5b04141515611ffa576003600080905092509250612002565b600081925092505b509250929050565b6000806000831415612026576005600080905091509150612039565b6000838581151561203357fe5b04915091505b9250929050565b600061204a61228a565b60008061205f8660000151866000015161222a565b9150915081602060405190810160405280838152508090509350935050509250929050565b600061208e61228a565b6120a084600001518460000151611ad3565b915091509250929050565b60006120b561228a565b6000806120ca86600001518660000151612257565b9150915081602060405190810160405280838152508090509350935050509250929050565b60006120f961228a565b6000806000806000806121148a600001518a60000151611fb5565b955095506000601781111561212557fe5b86601781111561213157fe5b1415156121565785602060405190810160405280600081525080905097509750612208565b6121746002670de0b6b3a764000081151561216d57fe5b0486612257565b935093506000601781111561218557fe5b84601781111561219157fe5b1415156121b65783602060405190810160405280600081525080905097509750612208565b6121c883670de0b6b3a764000061200a565b91509150600060178111156121d957fe5b8260178111156121e557fe5b1415156121ee57fe5b600060206040519081016040528083815250809050975097505b5050505050509250929050565b60008160000151836000015110905092915050565b600080838311151561224457600083850391509150612250565b60046000809050915091505b9250929050565b6000806000838501905084811015156122765760008192509250612282565b60036000809050925092505b509250929050565b602060405190810160405280600081525090565b610100604051908101604052806122b36122f8565b81526020016122c06122f8565b81526020016122cd6122f8565b8152602001600081526020016000815260200160001515815260200160008152602001600081525090565b6020604051908101604052806000815250905600a165627a7a72305820e95bb44238618d9a5847d3ec388af9e47e66160afafaef95eab13caa153445100029",
  "source": "/**\n *Submitted for verification at Etherscan.io on 2018-11-21\n*/\n\npragma solidity ^0.4.24;\ncontract ErrorReporter {\n\n    /**\n      * @dev `error` corresponds to enum Error; `info` corresponds to enum FailureInfo, and `detail` is an arbitrary\n      * contract-specific code that enables us to report opaque error codes from upgradeable contracts.\n      **/\n    event Failure(uint error, uint info, uint detail);\n\n    enum Error {\n        NO_ERROR,\n        OPAQUE_ERROR, // To be used when reporting errors from upgradeable contracts; the opaque code should be given as `detail` in the `Failure` event\n        UNAUTHORIZED,\n        INTEGER_OVERFLOW,\n        INTEGER_UNDERFLOW,\n        DIVISION_BY_ZERO,\n        BAD_INPUT,\n        TOKEN_INSUFFICIENT_ALLOWANCE,\n        TOKEN_INSUFFICIENT_BALANCE,\n        TOKEN_TRANSFER_FAILED,\n        MARKET_NOT_SUPPORTED,\n        SUPPLY_RATE_CALCULATION_FAILED,\n        BORROW_RATE_CALCULATION_FAILED,\n        TOKEN_INSUFFICIENT_CASH,\n        TOKEN_TRANSFER_OUT_FAILED,\n        INSUFFICIENT_LIQUIDITY,\n        INSUFFICIENT_BALANCE,\n        INVALID_COLLATERAL_RATIO,\n        MISSING_ASSET_PRICE,\n        EQUITY_INSUFFICIENT_BALANCE,\n        INVALID_CLOSE_AMOUNT_REQUESTED,\n        ASSET_NOT_PRICED,\n        INVALID_LIQUIDATION_DISCOUNT,\n        INVALID_COMBINED_RISK_PARAMETERS\n    }\n\n    /*\n     * Note: FailureInfo (but not Error) is kept in alphabetical order\n     *       This is because FailureInfo grows significantly faster, and\n     *       the order of Error has some meaning, while the order of FailureInfo\n     *       is entirely arbitrary.\n     */\n    enum FailureInfo {\n        BORROW_ACCOUNT_LIQUIDITY_CALCULATION_FAILED,\n        BORROW_ACCOUNT_SHORTFALL_PRESENT,\n        BORROW_ACCUMULATED_BALANCE_CALCULATION_FAILED,\n        BORROW_AMOUNT_LIQUIDITY_SHORTFALL,\n        BORROW_AMOUNT_VALUE_CALCULATION_FAILED,\n        BORROW_MARKET_NOT_SUPPORTED,\n        BORROW_NEW_BORROW_INDEX_CALCULATION_FAILED,\n        BORROW_NEW_BORROW_RATE_CALCULATION_FAILED,\n        BORROW_NEW_SUPPLY_INDEX_CALCULATION_FAILED,\n        BORROW_NEW_SUPPLY_RATE_CALCULATION_FAILED,\n        BORROW_NEW_TOTAL_BALANCE_CALCULATION_FAILED,\n        BORROW_NEW_TOTAL_BORROW_CALCULATION_FAILED,\n        BORROW_NEW_TOTAL_CASH_CALCULATION_FAILED,\n        BORROW_ORIGINATION_FEE_CALCULATION_FAILED,\n        BORROW_TRANSFER_OUT_FAILED,\n        EQUITY_WITHDRAWAL_AMOUNT_VALIDATION,\n        EQUITY_WITHDRAWAL_CALCULATE_EQUITY,\n        EQUITY_WITHDRAWAL_MODEL_OWNER_CHECK,\n        EQUITY_WITHDRAWAL_TRANSFER_OUT_FAILED,\n        LIQUIDATE_ACCUMULATED_BORROW_BALANCE_CALCULATION_FAILED,\n        LIQUIDATE_ACCUMULATED_SUPPLY_BALANCE_CALCULATION_FAILED_BORROWER_COLLATERAL_ASSET,\n        LIQUIDATE_ACCUMULATED_SUPPLY_BALANCE_CALCULATION_FAILED_LIQUIDATOR_COLLATERAL_ASSET,\n        LIQUIDATE_AMOUNT_SEIZE_CALCULATION_FAILED,\n        LIQUIDATE_BORROW_DENOMINATED_COLLATERAL_CALCULATION_FAILED,\n        LIQUIDATE_CLOSE_AMOUNT_TOO_HIGH,\n        LIQUIDATE_DISCOUNTED_REPAY_TO_EVEN_AMOUNT_CALCULATION_FAILED,\n        LIQUIDATE_NEW_BORROW_INDEX_CALCULATION_FAILED_BORROWED_ASSET,\n        LIQUIDATE_NEW_BORROW_INDEX_CALCULATION_FAILED_COLLATERAL_ASSET,\n        LIQUIDATE_NEW_BORROW_RATE_CALCULATION_FAILED_BORROWED_ASSET,\n        LIQUIDATE_NEW_SUPPLY_INDEX_CALCULATION_FAILED_BORROWED_ASSET,\n        LIQUIDATE_NEW_SUPPLY_INDEX_CALCULATION_FAILED_COLLATERAL_ASSET,\n        LIQUIDATE_NEW_SUPPLY_RATE_CALCULATION_FAILED_BORROWED_ASSET,\n        LIQUIDATE_NEW_TOTAL_BORROW_CALCULATION_FAILED_BORROWED_ASSET,\n        LIQUIDATE_NEW_TOTAL_CASH_CALCULATION_FAILED_BORROWED_ASSET,\n        LIQUIDATE_NEW_TOTAL_SUPPLY_BALANCE_CALCULATION_FAILED_BORROWER_COLLATERAL_ASSET,\n        LIQUIDATE_NEW_TOTAL_SUPPLY_BALANCE_CALCULATION_FAILED_LIQUIDATOR_COLLATERAL_ASSET,\n        LIQUIDATE_TRANSFER_IN_FAILED,\n        LIQUIDATE_TRANSFER_IN_NOT_POSSIBLE,\n        REPAY_BORROW_ACCUMULATED_BALANCE_CALCULATION_FAILED,\n        REPAY_BORROW_NEW_BORROW_INDEX_CALCULATION_FAILED,\n        REPAY_BORROW_NEW_BORROW_RATE_CALCULATION_FAILED,\n        REPAY_BORROW_NEW_SUPPLY_INDEX_CALCULATION_FAILED,\n        REPAY_BORROW_NEW_SUPPLY_RATE_CALCULATION_FAILED,\n        REPAY_BORROW_NEW_TOTAL_BALANCE_CALCULATION_FAILED,\n        REPAY_BORROW_NEW_TOTAL_BORROW_CALCULATION_FAILED,\n        REPAY_BORROW_NEW_TOTAL_CASH_CALCULATION_FAILED,\n        REPAY_BORROW_TRANSFER_IN_FAILED,\n        REPAY_BORROW_TRANSFER_IN_NOT_POSSIBLE,\n        SET_ADMIN_OWNER_CHECK,\n        SET_ASSET_PRICE_CHECK_ORACLE,\n        SET_MARKET_INTEREST_RATE_MODEL_OWNER_CHECK,\n        SET_ORACLE_OWNER_CHECK,\n        SET_ORIGINATION_FEE_OWNER_CHECK,\n        SET_RISK_PARAMETERS_OWNER_CHECK,\n        SET_RISK_PARAMETERS_VALIDATION,\n        SUPPLY_ACCUMULATED_BALANCE_CALCULATION_FAILED,\n        SUPPLY_MARKET_NOT_SUPPORTED,\n        SUPPLY_NEW_BORROW_INDEX_CALCULATION_FAILED,\n        SUPPLY_NEW_BORROW_RATE_CALCULATION_FAILED,\n        SUPPLY_NEW_SUPPLY_INDEX_CALCULATION_FAILED,\n        SUPPLY_NEW_SUPPLY_RATE_CALCULATION_FAILED,\n        SUPPLY_NEW_TOTAL_BALANCE_CALCULATION_FAILED,\n        SUPPLY_NEW_TOTAL_CASH_CALCULATION_FAILED,\n        SUPPLY_NEW_TOTAL_SUPPLY_CALCULATION_FAILED,\n        SUPPLY_TRANSFER_IN_FAILED,\n        SUPPLY_TRANSFER_IN_NOT_POSSIBLE,\n        SUPPORT_MARKET_OWNER_CHECK,\n        SUPPORT_MARKET_PRICE_CHECK,\n        SUSPEND_MARKET_OWNER_CHECK,\n        WITHDRAW_ACCOUNT_LIQUIDITY_CALCULATION_FAILED,\n        WITHDRAW_ACCOUNT_SHORTFALL_PRESENT,\n        WITHDRAW_ACCUMULATED_BALANCE_CALCULATION_FAILED,\n        WITHDRAW_AMOUNT_LIQUIDITY_SHORTFALL,\n        WITHDRAW_AMOUNT_VALUE_CALCULATION_FAILED,\n        WITHDRAW_CAPACITY_CALCULATION_FAILED,\n        WITHDRAW_NEW_BORROW_INDEX_CALCULATION_FAILED,\n        WITHDRAW_NEW_BORROW_RATE_CALCULATION_FAILED,\n        WITHDRAW_NEW_SUPPLY_INDEX_CALCULATION_FAILED,\n        WITHDRAW_NEW_SUPPLY_RATE_CALCULATION_FAILED,\n        WITHDRAW_NEW_TOTAL_BALANCE_CALCULATION_FAILED,\n        WITHDRAW_NEW_TOTAL_SUPPLY_CALCULATION_FAILED,\n        WITHDRAW_TRANSFER_OUT_FAILED,\n        WITHDRAW_TRANSFER_OUT_NOT_POSSIBLE\n    }\n\n\n    /**\n      * @dev use this when reporting a known error from the money market or a non-upgradeable collaborator\n      */\n    function fail(Error err, FailureInfo info) internal returns (uint) {\n        emit Failure(uint(err), uint(info), 0);\n\n        return uint(err);\n    }\n\n\n    /**\n      * @dev use this when reporting an opaque error from an upgradeable collaborator contract\n      */\n    function failOpaque(FailureInfo info, uint opaqueError) internal returns (uint) {\n        emit Failure(uint(Error.OPAQUE_ERROR), uint(info), opaqueError);\n\n        return uint(Error.OPAQUE_ERROR);\n    }\n\n}\ncontract DSValue {\n    // TODO: View or constant? It's clearly a view...\n    function peek() public view returns (bytes32, bool);\n\n    function read() public view returns (bytes32);\n}\ncontract CarefulMath is ErrorReporter {\n\n    /**\n    * @dev Multiplies two numbers, returns an error on overflow.\n    */\n    function mul(uint a, uint b) internal pure returns (Error, uint) {\n        if (a == 0) {\n            return (Error.NO_ERROR, 0);\n        }\n\n        uint c = a * b;\n\n        if (c / a != b) {\n            return (Error.INTEGER_OVERFLOW, 0);\n        } else {\n            return (Error.NO_ERROR, c);\n        }\n    }\n\n    /**\n    * @dev Integer division of two numbers, truncating the quotient.\n    */\n    function div(uint a, uint b) internal pure returns (Error, uint) {\n        if (b == 0) {\n            return (Error.DIVISION_BY_ZERO, 0);\n        }\n\n        return (Error.NO_ERROR, a / b);\n    }\n\n    /**\n    * @dev Subtracts two numbers, returns an error on overflow (i.e. if subtrahend is greater than minuend).\n    */\n    function sub(uint a, uint b) internal pure returns (Error, uint) {\n        if (b <= a) {\n            return (Error.NO_ERROR, a - b);\n        } else {\n            return (Error.INTEGER_UNDERFLOW, 0);\n        }\n    }\n\n    /**\n    * @dev Adds two numbers, returns an error on overflow.\n    */\n    function add(uint a, uint b) internal pure returns (Error, uint) {\n        uint c = a + b;\n\n        if (c >= a) {\n            return (Error.NO_ERROR, c);\n        } else {\n            return (Error.INTEGER_OVERFLOW, 0);\n        }\n    }\n\n    /**\n    * @dev add a and b and then subtract c\n    */\n    function addThenSub(uint a, uint b, uint c) internal pure returns (Error, uint) {\n        (Error err0, uint sum) = add(a, b);\n\n        if (err0 != Error.NO_ERROR) {\n            return (err0, 0);\n        }\n\n        return sub(sum, c);\n    }\n}\ncontract Exponential is ErrorReporter, CarefulMath {\n\n    // TODO: We may wish to put the result of 10**18 here instead of the expression.\n    // Per https://solidity.readthedocs.io/en/latest/contracts.html#constant-state-variables\n    // the optimizer MAY replace the expression 10**18 with its calculated value.\n    uint constant expScale = 10**18;\n\n    // See TODO on expScale\n    uint constant halfExpScale = expScale/2;\n\n    struct Exp {\n        uint mantissa;\n    }\n\n    uint constant mantissaOne = 10**18;\n    uint constant mantissaOneTenth = 10**17;\n\n    /**\n    * @dev Creates an exponential from numerator and denominator values.\n    *      Note: Returns an error if (`num` * 10e18) > MAX_INT,\n    *            or if `denom` is zero.\n    */\n    function getExp(uint num, uint denom) pure internal returns (Error, Exp memory) {\n        (Error err0, uint scaledNumerator) = mul(num, expScale);\n        if (err0 != Error.NO_ERROR) {\n            return (err0, Exp({mantissa: 0}));\n        }\n\n        (Error err1, uint rational) = div(scaledNumerator, denom);\n        if (err1 != Error.NO_ERROR) {\n            return (err1, Exp({mantissa: 0}));\n        }\n\n        return (Error.NO_ERROR, Exp({mantissa: rational}));\n    }\n\n    /**\n    * @dev Adds two exponentials, returning a new exponential.\n    */\n    function addExp(Exp memory a, Exp memory b) pure internal returns (Error, Exp memory) {\n        (Error error, uint result) = add(a.mantissa, b.mantissa);\n\n        return (error, Exp({mantissa: result}));\n    }\n\n    /**\n    * @dev Subtracts two exponentials, returning a new exponential.\n    */\n    function subExp(Exp memory a, Exp memory b) pure internal returns (Error, Exp memory) {\n        (Error error, uint result) = sub(a.mantissa, b.mantissa);\n\n        return (error, Exp({mantissa: result}));\n    }\n\n    /**\n    * @dev Multiply an Exp by a scalar, returning a new Exp.\n    */\n    function mulScalar(Exp memory a, uint scalar) pure internal returns (Error, Exp memory) {\n        (Error err0, uint scaledMantissa) = mul(a.mantissa, scalar);\n        if (err0 != Error.NO_ERROR) {\n            return (err0, Exp({mantissa: 0}));\n        }\n\n        return (Error.NO_ERROR, Exp({mantissa: scaledMantissa}));\n    }\n\n    /**\n    * @dev Divide an Exp by a scalar, returning a new Exp.\n    */\n    function divScalar(Exp memory a, uint scalar) pure internal returns (Error, Exp memory) {\n        (Error err0, uint descaledMantissa) = div(a.mantissa, scalar);\n        if (err0 != Error.NO_ERROR) {\n            return (err0, Exp({mantissa: 0}));\n        }\n\n        return (Error.NO_ERROR, Exp({mantissa: descaledMantissa}));\n    }\n\n    /**\n    * @dev Divide a scalar by an Exp, returning a new Exp.\n    */\n    function divScalarByExp(uint scalar, Exp divisor) pure internal returns (Error, Exp memory) {\n        /*\n            We are doing this as:\n            getExp(mul(expScale, scalar), divisor.mantissa)\n\n            How it works:\n            Exp = a / b;\n            Scalar = s;\n            `s / (a / b)` = `b * s / a` and since for an Exp `a = mantissa, b = expScale`\n        */\n        (Error err0, uint numerator) = mul(expScale, scalar);\n        if (err0 != Error.NO_ERROR) {\n            return (err0, Exp({mantissa: 0}));\n        }\n        return getExp(numerator, divisor.mantissa);\n    }\n\n    /**\n    * @dev Multiplies two exponentials, returning a new exponential.\n    */\n    function mulExp(Exp memory a, Exp memory b) pure internal returns (Error, Exp memory) {\n\n        (Error err0, uint doubleScaledProduct) = mul(a.mantissa, b.mantissa);\n        if (err0 != Error.NO_ERROR) {\n            return (err0, Exp({mantissa: 0}));\n        }\n\n        // We add half the scale before dividing so that we get rounding instead of truncation.\n        //  See \"Listing 6\" and text above it at https://accu.org/index.php/journals/1717\n        // Without this change, a result like 6.6...e-19 will be truncated to 0 instead of being rounded to 1e-18.\n        (Error err1, uint doubleScaledProductWithHalfScale) = add(halfExpScale, doubleScaledProduct);\n        if (err1 != Error.NO_ERROR) {\n            return (err1, Exp({mantissa: 0}));\n        }\n\n        (Error err2, uint product) = div(doubleScaledProductWithHalfScale, expScale);\n        // The only error `div` can return is Error.DIVISION_BY_ZERO but we control `expScale` and it is not zero.\n        assert(err2 == Error.NO_ERROR);\n\n        return (Error.NO_ERROR, Exp({mantissa: product}));\n    }\n\n    /**\n      * @dev Divides two exponentials, returning a new exponential.\n      *     (a/scale) / (b/scale) = (a/scale) * (scale/b) = a/b,\n      *  which we can scale as an Exp by calling getExp(a.mantissa, b.mantissa)\n      */\n    function divExp(Exp memory a, Exp memory b) pure internal returns (Error, Exp memory) {\n        return getExp(a.mantissa, b.mantissa);\n    }\n\n    /**\n      * @dev Truncates the given exp to a whole number value.\n      *      For example, truncate(Exp{mantissa: 15 * (10**18)}) = 15\n      */\n    function truncate(Exp memory exp) pure internal returns (uint) {\n        // Note: We are not using careful math here as we're performing a division that cannot fail\n        return exp.mantissa / 10**18;\n    }\n\n    /**\n      * @dev Checks if first Exp is less than second Exp.\n      */\n    function lessThanExp(Exp memory left, Exp memory right) pure internal returns (bool) {\n        return left.mantissa < right.mantissa; //TODO: Add some simple tests and this in another PR yo.\n    }\n\n    /**\n      * @dev Checks if left Exp <= right Exp.\n      */\n    function lessThanOrEqualExp(Exp memory left, Exp memory right) pure internal returns (bool) {\n        return left.mantissa <= right.mantissa;\n    }\n\n    /**\n      * @dev Checks if first Exp is greater than second Exp.\n      */\n    function greaterThanExp(Exp memory left, Exp memory right) pure internal returns (bool) {\n        return left.mantissa > right.mantissa;\n    }\n\n    /**\n      * @dev returns true if Exp is exactly zero\n      */\n    function isZeroExp(Exp memory value) pure internal returns (bool) {\n        return value.mantissa == 0;\n    }\n}\ncontract PriceOracle is Exponential {\n\n    /**\n      * @dev flag for whether or not contract is paused\n      *\n      */\n    bool public paused;\n\n    uint public constant numBlocksPerPeriod = 240; // approximately 1 hour: 60 seconds/minute * 60 minutes/hour * 1 block/15 seconds\n\n    uint public constant maxSwingMantissa = (10 ** 17); // 0.1\n\n    /**\n      * @dev Mapping of asset addresses to DSValue price oracle contracts. The price contracts\n      *      should be DSValue contracts whose value is the `eth:asset` price scaled by 1e18.\n      *      That is, 1 eth is worth how much of the asset (e.g. 1 eth = 100 USD). We want\n      *      to know the inverse, which is how much eth is one asset worth. This `asset:eth`\n      *      is the multiplicative inverse (in that example, 1/100). The math is a bit trickier\n      *      since we need to descale the number by 1e18, inverse, and then rescale the number.\n      *      We perform this operation to return the `asset:eth` price for these reader assets.\n      *\n      * map: assetAddress -> DSValue price oracle\n      */\n    mapping(address => DSValue) public readers;\n\n    /**\n      * @dev Mapping of asset addresses and their corresponding price in terms of Eth-Wei\n      *      which is simply equal to AssetWeiPrice * 10e18. For instance, if OMG token was\n      *      worth 5x Eth then the price for OMG would be 5*10e18 or Exp({mantissa: 5000000000000000000}).\n      * map: assetAddress -> Exp\n      */\n    mapping(address => Exp) public _assetPrices;\n\n    constructor(address _poster, address addr0, address reader0, address addr1, address reader1) public {\n        anchorAdmin = msg.sender;\n        poster = _poster;\n        maxSwing = Exp({mantissa : maxSwingMantissa});\n\n        // Make sure the assets are zero or different\n        assert(addr0 == address(0) || (addr0 != addr1));\n\n        if (addr0 != address(0)) {\n            assert(reader0 != address(0));\n            readers[addr0] = DSValue(reader0);\n        } else {\n            assert(reader0 == address(0));\n        }\n\n        if (addr1 != address(0)) {\n            assert(reader1 != address(0));\n            readers[addr1] = DSValue(reader1);\n        } else {\n            assert(reader1 == address(0));\n        }\n    }\n\n    /**\n      * @notice Do not pay into PriceOracle\n      */\n    function() payable public {\n        revert();\n    }\n\n    enum OracleError {\n        NO_ERROR,\n        UNAUTHORIZED,\n        FAILED_TO_SET_PRICE\n    }\n\n    enum OracleFailureInfo {\n        ACCEPT_ANCHOR_ADMIN_PENDING_ANCHOR_ADMIN_CHECK,\n        SET_PAUSED_OWNER_CHECK,\n        SET_PENDING_ANCHOR_ADMIN_OWNER_CHECK,\n        SET_PENDING_ANCHOR_PERMISSION_CHECK,\n        SET_PRICE_CALCULATE_SWING,\n        SET_PRICE_CAP_TO_MAX,\n        SET_PRICE_MAX_SWING_CHECK,\n        SET_PRICE_NO_ANCHOR_PRICE_OR_INITIAL_PRICE_ZERO,\n        SET_PRICE_PERMISSION_CHECK,\n        SET_PRICE_ZERO_PRICE,\n        SET_PRICES_PARAM_VALIDATION,\n        SET_PRICE_IS_READER_ASSET\n    }\n\n    /**\n      * @dev `msgSender` is msg.sender; `error` corresponds to enum OracleError; `info` corresponds to enum OracleFailureInfo, and `detail` is an arbitrary\n      * contract-specific code that enables us to report opaque error codes from upgradeable contracts.\n      **/\n    event OracleFailure(address msgSender, address asset, uint error, uint info, uint detail);\n\n    /**\n      * @dev use this when reporting a known error from the price oracle or a non-upgradeable collaborator\n      *      Using Oracle in name because we already inherit a `fail` function from ErrorReporter.sol via Exponential.sol\n      */\n    function failOracle(address asset, OracleError err, OracleFailureInfo info) internal returns (uint) {\n        emit OracleFailure(msg.sender, asset, uint(err), uint(info), 0);\n\n        return uint(err);\n    }\n\n    /**\n      * @dev Use this when reporting an error from the money market. Give the money market result as `details`\n      */\n    function failOracleWithDetails(address asset, OracleError err, OracleFailureInfo info, uint details) internal returns (uint) {\n        emit OracleFailure(msg.sender, asset, uint(err), uint(info), details);\n\n        return uint(err);\n    }\n\n    /**\n      * @dev An administrator who can set the pending anchor value for assets.\n      *      Set in the constructor.\n      */\n    address public anchorAdmin;\n\n    /**\n      * @dev pending anchor administrator for this contract.\n      */\n    address public pendingAnchorAdmin;\n\n    /**\n      * @dev Address of the price poster.\n      *      Set in the constructor.\n      */\n    address public poster;\n\n    /**\n      * @dev maxSwing the maximum allowed percentage difference between a new price and the anchor's price\n      *      Set only in the constructor\n      */\n    Exp public maxSwing;\n\n    struct Anchor {\n        // floor(block.number / numBlocksPerPeriod) + 1\n        uint period;\n\n        // Price in ETH, scaled by 10**18\n        uint priceMantissa;\n    }\n\n    /**\n      * @dev anchors by asset\n      */\n    mapping(address => Anchor) public anchors;\n\n    /**\n      * @dev pending anchor prices by asset\n      */\n    mapping(address => uint) public pendingAnchors;\n\n    /**\n      * @dev emitted when a pending anchor is set\n      * @param asset Asset for which to set a pending anchor\n      * @param oldScaledPrice if an unused pending anchor was present, its value; otherwise 0.\n      * @param newScaledPrice the new scaled pending anchor price\n      */\n    event NewPendingAnchor(address anchorAdmin, address asset, uint oldScaledPrice, uint newScaledPrice);\n\n    /**\n      * @notice provides ability to override the anchor price for an asset\n      * @dev Admin function to set the anchor price for an asset\n      * @param asset Asset for which to override the anchor price\n      * @param newScaledPrice New anchor price\n      * @return uint 0=success, otherwise a failure (see enum OracleError for details)\n      */\n    function _setPendingAnchor(address asset, uint newScaledPrice) public returns (uint) {\n        // Check caller = anchorAdmin. Note: Deliberately not allowing admin. They can just change anchorAdmin if desired.\n        if (msg.sender != anchorAdmin) {\n            return failOracle(asset, OracleError.UNAUTHORIZED, OracleFailureInfo.SET_PENDING_ANCHOR_PERMISSION_CHECK);\n        }\n\n        uint oldScaledPrice = pendingAnchors[asset];\n        pendingAnchors[asset] = newScaledPrice;\n\n        emit NewPendingAnchor(msg.sender, asset, oldScaledPrice, newScaledPrice);\n\n        return uint(OracleError.NO_ERROR);\n    }\n\n    /**\n      * @dev emitted for all price changes\n      */\n    event PricePosted(address asset, uint previousPriceMantissa, uint requestedPriceMantissa, uint newPriceMantissa);\n\n    /**\n      * @dev emitted if this contract successfully posts a capped-to-max price to the money market\n      */\n    event CappedPricePosted(address asset, uint requestedPriceMantissa, uint anchorPriceMantissa, uint cappedPriceMantissa);\n\n    /**\n      * @dev emitted when admin either pauses or resumes the contract; newState is the resulting state\n      */\n    event SetPaused(bool newState);\n\n    /**\n      * @dev emitted when pendingAnchorAdmin is changed\n      */\n    event NewPendingAnchorAdmin(address oldPendingAnchorAdmin, address newPendingAnchorAdmin);\n\n    /**\n      * @dev emitted when pendingAnchorAdmin is accepted, which means anchor admin is updated\n      */\n    event NewAnchorAdmin(address oldAnchorAdmin, address newAnchorAdmin);\n\n    /**\n      * @notice set `paused` to the specified state\n      * @dev Admin function to pause or resume the market\n      * @param requestedState value to assign to `paused`\n      * @return uint 0=success, otherwise a failure\n      */\n    function _setPaused(bool requestedState) public returns (uint) {\n        // Check caller = anchorAdmin\n        if (msg.sender != anchorAdmin) {\n            return failOracle(0, OracleError.UNAUTHORIZED, OracleFailureInfo.SET_PAUSED_OWNER_CHECK);\n        }\n\n        paused = requestedState;\n        emit SetPaused(requestedState);\n\n        return uint(Error.NO_ERROR);\n    }\n\n    /**\n      * @notice Begins transfer of anchor admin rights. The newPendingAnchorAdmin must call `_acceptAnchorAdmin` to finalize the transfer.\n      * @dev Admin function to begin change of anchor admin. The newPendingAnchorAdmin must call `_acceptAnchorAdmin` to finalize the transfer.\n      * @param newPendingAnchorAdmin New pending anchor admin.\n      * @return uint 0=success, otherwise a failure\n      *\n      * TODO: Should we add a second arg to verify, like a checksum of `newAnchorAdmin` address?\n      */\n    function _setPendingAnchorAdmin(address newPendingAnchorAdmin) public returns (uint) {\n        // Check caller = anchorAdmin\n        if (msg.sender != anchorAdmin) {\n            return failOracle(0, OracleError.UNAUTHORIZED, OracleFailureInfo.SET_PENDING_ANCHOR_ADMIN_OWNER_CHECK);\n        }\n\n        // save current value, if any, for inclusion in log\n        address oldPendingAnchorAdmin = pendingAnchorAdmin;\n        // Store pendingAdmin = newPendingAdmin\n        pendingAnchorAdmin = newPendingAnchorAdmin;\n\n        emit NewPendingAnchorAdmin(oldPendingAnchorAdmin, newPendingAnchorAdmin);\n\n        return uint(Error.NO_ERROR);\n    }\n\n    /**\n      * @notice Accepts transfer of anchor admin rights. msg.sender must be pendingAnchorAdmin\n      * @dev Admin function for pending anchor admin to accept role and update anchor admin\n      * @return uint 0=success, otherwise a failure\n      */\n    function _acceptAnchorAdmin() public returns (uint) {\n        // Check caller = pendingAnchorAdmin\n        // msg.sender can't be zero\n        if (msg.sender != pendingAnchorAdmin) {\n            return failOracle(0, OracleError.UNAUTHORIZED, OracleFailureInfo.ACCEPT_ANCHOR_ADMIN_PENDING_ANCHOR_ADMIN_CHECK);\n        }\n\n        // Save current value for inclusion in log\n        address oldAnchorAdmin = anchorAdmin;\n        // Store admin = pendingAnchorAdmin\n        anchorAdmin = pendingAnchorAdmin;\n        // Clear the pending value\n        pendingAnchorAdmin = 0;\n\n        emit NewAnchorAdmin(oldAnchorAdmin, msg.sender);\n\n        return uint(Error.NO_ERROR);\n    }\n\n    /**\n      * @notice retrieves price of an asset\n      * @dev function to get price for an asset\n      * @param asset Asset for which to get the price\n      * @return uint mantissa of asset price (scaled by 1e18) or zero if unset or contract paused\n      */\n    function assetPrices(address asset) public view returns (uint) {\n        // Note: zero is treated by the money market as an invalid\n        //       price and will cease operations with that asset\n        //       when zero.\n        //\n        // We get the price as:\n        //\n        //  1. If the contract is paused, return 0.\n        //  2. If the asset is a reader asset:\n        //    a. If the reader has a value set, invert it and return.\n        //    b. Else, return 0.\n        //  3. Return price in `_assetPrices`, which may be zero.\n\n        if (paused) {\n            return 0;\n        } else {\n            if (readers[asset] != address(0)) {\n                (bytes32 readValue, bool foundValue) = readers[asset].peek();\n\n                if (foundValue) {\n                    (Error error, Exp memory invertedVal) = getExp(mantissaOne, uint256(readValue));\n\n                    if (error != Error.NO_ERROR) {\n                        return 0;\n                    }\n\n                    return invertedVal.mantissa;\n                } else {\n                    return 0;\n                }\n            } else {\n                return _assetPrices[asset].mantissa;\n            }\n        }\n    }\n\n    /**\n      * @notice retrieves price of an asset\n      * @dev function to get price for an asset\n      * @param asset Asset for which to get the price\n      * @return uint mantissa of asset price (scaled by 1e18) or zero if unset or contract paused\n      */\n    function getPrice(address asset) public view returns (uint) {\n        return assetPrices(asset);\n    }\n\n    struct SetPriceLocalVars {\n        Exp price;\n        Exp swing;\n        Exp anchorPrice;\n        uint anchorPeriod;\n        uint currentPeriod;\n        bool priceCapped;\n        uint cappingAnchorPriceMantissa;\n        uint pendingAnchorMantissa;\n    }\n\n    /**\n      * @notice entry point for updating prices\n      * @dev function to set price for an asset\n      * @param asset Asset for which to set the price\n      * @param requestedPriceMantissa requested new price, scaled by 10**18\n      * @return uint 0=success, otherwise a failure (see enum OracleError for details)\n      */\n    function setPrice(address asset, uint requestedPriceMantissa) public returns (uint) {\n        // Fail when msg.sender is not poster\n        if (msg.sender != poster) {\n            return failOracle(asset, OracleError.UNAUTHORIZED, OracleFailureInfo.SET_PRICE_PERMISSION_CHECK);\n        }\n\n        return setPriceInternal(asset, requestedPriceMantissa);\n    }\n\n    function setPriceInternal(address asset, uint requestedPriceMantissa) internal returns (uint) {\n        // re-used for intermediate errors\n        Error err;\n        SetPriceLocalVars memory localVars;\n        // We add 1 for currentPeriod so that it can never be zero and there's no ambiguity about an unset value.\n        // (It can be a problem in tests with low block numbers.)\n        localVars.currentPeriod = (block.number / numBlocksPerPeriod) + 1;\n        localVars.pendingAnchorMantissa = pendingAnchors[asset];\n        localVars.price = Exp({mantissa : requestedPriceMantissa});\n\n        if (readers[asset] != address(0)) {\n            return failOracle(asset, OracleError.FAILED_TO_SET_PRICE, OracleFailureInfo.SET_PRICE_IS_READER_ASSET);\n        }\n\n        if (localVars.pendingAnchorMantissa != 0) {\n            // let's explicitly set to 0 rather than relying on default of declaration\n            localVars.anchorPeriod = 0;\n            localVars.anchorPrice = Exp({mantissa : localVars.pendingAnchorMantissa});\n\n            // Verify movement is within max swing of pending anchor (currently: 10%)\n            (err, localVars.swing) = calculateSwing(localVars.anchorPrice, localVars.price);\n            if (err != Error.NO_ERROR) {\n                return failOracleWithDetails(asset, OracleError.FAILED_TO_SET_PRICE, OracleFailureInfo.SET_PRICE_CALCULATE_SWING, uint(err));\n            }\n\n            // Fail when swing > maxSwing\n            if (greaterThanExp(localVars.swing, maxSwing)) {\n                return failOracleWithDetails(asset, OracleError.FAILED_TO_SET_PRICE, OracleFailureInfo.SET_PRICE_MAX_SWING_CHECK, localVars.swing.mantissa);\n            }\n        } else {\n            localVars.anchorPeriod = anchors[asset].period;\n            localVars.anchorPrice = Exp({mantissa : anchors[asset].priceMantissa});\n\n            if (localVars.anchorPeriod != 0) {\n                (err, localVars.priceCapped, localVars.price) = capToMax(localVars.anchorPrice, localVars.price);\n                if (err != Error.NO_ERROR) {\n                    return failOracleWithDetails(asset, OracleError.FAILED_TO_SET_PRICE, OracleFailureInfo.SET_PRICE_CAP_TO_MAX, uint(err));\n                }\n                if (localVars.priceCapped) {\n                    // save for use in log\n                    localVars.cappingAnchorPriceMantissa = localVars.anchorPrice.mantissa;\n                }\n            } else {\n                // Setting first price. Accept as is (already assigned above from requestedPriceMantissa) and use as anchor\n                localVars.anchorPrice = Exp({mantissa : requestedPriceMantissa});\n            }\n        }\n\n        // Fail if anchorPrice or price is zero.\n        // zero anchor represents an unexpected situation likely due to a problem in this contract\n        // zero price is more likely as the result of bad input from the caller of this function\n        if (isZeroExp(localVars.anchorPrice)) {\n            // If we get here price could also be zero, but it does not seem worthwhile to distinguish the 3rd case\n            return failOracle(asset, OracleError.FAILED_TO_SET_PRICE, OracleFailureInfo.SET_PRICE_NO_ANCHOR_PRICE_OR_INITIAL_PRICE_ZERO);\n        }\n\n        if (isZeroExp(localVars.price)) {\n            return failOracle(asset, OracleError.FAILED_TO_SET_PRICE, OracleFailureInfo.SET_PRICE_ZERO_PRICE);\n        }\n\n        // BEGIN SIDE EFFECTS\n\n        // Set pendingAnchor = Nothing\n        // Pending anchor is only used once.\n        if (pendingAnchors[asset] != 0) {\n            pendingAnchors[asset] = 0;\n        }\n\n        // If currentPeriod > anchorPeriod:\n        //  Set anchors[asset] = (currentPeriod, price)\n        //  The new anchor is if we're in a new period or we had a pending anchor, then we become the new anchor\n        if (localVars.currentPeriod > localVars.anchorPeriod) {\n            anchors[asset] = Anchor({period : localVars.currentPeriod, priceMantissa : localVars.price.mantissa});\n        }\n\n        uint previousPrice = _assetPrices[asset].mantissa;\n\n        setPriceStorageInternal(asset, localVars.price.mantissa);\n\n        emit PricePosted(asset, previousPrice, requestedPriceMantissa, localVars.price.mantissa);\n\n        if (localVars.priceCapped) {\n            // We have set a capped price. Log it so we can detect the situation and investigate.\n            emit CappedPricePosted(asset, requestedPriceMantissa, localVars.cappingAnchorPriceMantissa, localVars.price.mantissa);\n        }\n\n        return uint(OracleError.NO_ERROR);\n    }\n\n    // As a function to allow harness overrides\n    function setPriceStorageInternal(address asset, uint256 priceMantissa) internal {\n        _assetPrices[asset] = Exp({mantissa: priceMantissa});\n    }\n\n    // abs(price - anchorPrice) / anchorPrice\n    function calculateSwing(Exp memory anchorPrice, Exp memory price) pure internal returns (Error, Exp memory) {\n        Exp memory numerator;\n        Error err;\n\n        if (greaterThanExp(anchorPrice, price)) {\n            (err, numerator) = subExp(anchorPrice, price);\n            // can't underflow\n            assert(err == Error.NO_ERROR);\n        } else {\n            (err, numerator) = subExp(price, anchorPrice);\n            // Given greaterThan check above, price >= anchorPrice so can't underflow.\n            assert(err == Error.NO_ERROR);\n        }\n\n        return divExp(numerator, anchorPrice);\n    }\n\n    function capToMax(Exp memory anchorPrice, Exp memory price) view internal returns (Error, bool, Exp memory) {\n        Exp memory one = Exp({mantissa : mantissaOne});\n        Exp memory onePlusMaxSwing;\n        Exp memory oneMinusMaxSwing;\n        Exp memory max;\n        Exp memory min;\n        // re-used for intermediate errors\n        Error err;\n\n        (err, onePlusMaxSwing) = addExp(one, maxSwing);\n        if (err != Error.NO_ERROR) {\n            return (err, false, Exp({mantissa : 0}));\n        }\n\n        // max = anchorPrice * (1 + maxSwing)\n        (err, max) = mulExp(anchorPrice, onePlusMaxSwing);\n        if (err != Error.NO_ERROR) {\n            return (err, false, Exp({mantissa : 0}));\n        }\n\n        // If price > anchorPrice * (1 + maxSwing)\n        // Set price = anchorPrice * (1 + maxSwing)\n        if (greaterThanExp(price, max)) {\n            return (Error.NO_ERROR, true, max);\n        }\n\n        (err, oneMinusMaxSwing) = subExp(one, maxSwing);\n        if (err != Error.NO_ERROR) {\n            return (err, false, Exp({mantissa : 0}));\n        }\n\n        // min = anchorPrice * (1 - maxSwing)\n        (err, min) = mulExp(anchorPrice, oneMinusMaxSwing);\n        // We can't overflow here or we would have already overflowed above when calculating `max`\n        assert(err == Error.NO_ERROR);\n\n        // If  price < anchorPrice * (1 - maxSwing)\n        // Set price = anchorPrice * (1 - maxSwing)\n        if (lessThanExp(price, min)) {\n            return (Error.NO_ERROR, true, min);\n        }\n\n        return (Error.NO_ERROR, false, price);\n    }\n\n    /**\n      * @notice entry point for updating multiple prices\n      * @dev function to set prices for a variable number of assets.\n      * @param assets a list of up to assets for which to set a price. required: 0 < assets.length == requestedPriceMantissas.length\n      * @param requestedPriceMantissas requested new prices for the assets, scaled by 10**18. required: 0 < assets.length == requestedPriceMantissas.length\n      * @return uint values in same order as inputs. For each: 0=success, otherwise a failure (see enum OracleError for details)\n      */\n    function setPrices(address[] assets, uint[] requestedPriceMantissas) public returns (uint[] memory) {\n        uint numAssets = assets.length;\n        uint numPrices = requestedPriceMantissas.length;\n        uint[] memory result;\n\n        // Fail when msg.sender is not poster\n        if (msg.sender != poster) {\n            result = new uint[](1);\n            result[0] = failOracle(0, OracleError.UNAUTHORIZED, OracleFailureInfo.SET_PRICE_PERMISSION_CHECK);\n            return result;\n        }\n\n        if ((numAssets == 0) || (numPrices != numAssets)) {\n            result = new uint[](1);\n            result[0] = failOracle(0, OracleError.FAILED_TO_SET_PRICE, OracleFailureInfo.SET_PRICES_PARAM_VALIDATION);\n            return result;\n        }\n\n        result = new uint[](numAssets);\n\n        for (uint i = 0; i < numAssets; i++) {\n            result[i] = setPriceInternal(assets[i], requestedPriceMantissas[i]);\n        }\n\n        return result;\n    }\n}",
  "sourcePath": "/home/belvis/ethereum/compound-Liquidator/contracts/solc4/PriceOracle.sol",
  "compiler": {
    "name": "solc",
    "version": "0.4.24+commit.e67f0147.Emscripten.clang"
  },
  "schemaVersion": "3.2.2-next.0",
  "updatedAt": "2020-08-10T23:28:31.403Z",
  "devdoc": {
    "methods": {
      "_acceptAnchorAdmin()": {
        "details": "Admin function for pending anchor admin to accept role and update anchor admin",
        "return": "uint 0=success, otherwise a failure"
      },
      "_setPaused(bool)": {
        "details": "Admin function to pause or resume the market",
        "params": {
          "requestedState": "value to assign to `paused`"
        },
        "return": "uint 0=success, otherwise a failure"
      },
      "_setPendingAnchor(address,uint256)": {
        "details": "Admin function to set the anchor price for an asset",
        "params": {
          "asset": "Asset for which to override the anchor price",
          "newScaledPrice": "New anchor price"
        },
        "return": "uint 0=success, otherwise a failure (see enum OracleError for details)"
      },
      "_setPendingAnchorAdmin(address)": {
        "details": "Admin function to begin change of anchor admin. The newPendingAnchorAdmin must call `_acceptAnchorAdmin` to finalize the transfer.",
        "params": {
          "newPendingAnchorAdmin": "New pending anchor admin."
        },
        "return": "uint 0=success, otherwise a failure      * TODO: Should we add a second arg to verify, like a checksum of `newAnchorAdmin` address?"
      },
      "assetPrices(address)": {
        "details": "function to get price for an asset",
        "params": {
          "asset": "Asset for which to get the price"
        },
        "return": "uint mantissa of asset price (scaled by 1e18) or zero if unset or contract paused"
      },
      "getPrice(address)": {
        "details": "function to get price for an asset",
        "params": {
          "asset": "Asset for which to get the price"
        },
        "return": "uint mantissa of asset price (scaled by 1e18) or zero if unset or contract paused"
      },
      "setPrice(address,uint256)": {
        "details": "function to set price for an asset",
        "params": {
          "asset": "Asset for which to set the price",
          "requestedPriceMantissa": "requested new price, scaled by 10**18"
        },
        "return": "uint 0=success, otherwise a failure (see enum OracleError for details)"
      },
      "setPrices(address[],uint256[])": {
        "details": "function to set prices for a variable number of assets.",
        "params": {
          "assets": "a list of up to assets for which to set a price. required: 0 < assets.length == requestedPriceMantissas.length",
          "requestedPriceMantissas": "requested new prices for the assets, scaled by 10**18. required: 0 < assets.length == requestedPriceMantissas.length"
        },
        "return": "uint values in same order as inputs. For each: 0=success, otherwise a failure (see enum OracleError for details)"
      }
    }
  },
  "userdoc": {
    "methods": {
      "_acceptAnchorAdmin()": {
        "notice": "Accepts transfer of anchor admin rights. msg.sender must be pendingAnchorAdmin"
      },
      "_setPaused(bool)": {
        "notice": "set `paused` to the specified state"
      },
      "_setPendingAnchor(address,uint256)": {
        "notice": "provides ability to override the anchor price for an asset"
      },
      "_setPendingAnchorAdmin(address)": {
        "notice": "Begins transfer of anchor admin rights. The newPendingAnchorAdmin must call `_acceptAnchorAdmin` to finalize the transfer."
      },
      "assetPrices(address)": {
        "notice": "retrieves price of an asset"
      },
      "getPrice(address)": {
        "notice": "retrieves price of an asset"
      },
      "setPrice(address,uint256)": {
        "notice": "entry point for updating prices"
      },
      "setPrices(address[],uint256[])": {
        "notice": "entry point for updating multiple prices"
      }
    }
  }
}