{
  "contractName": "TestRouter",
  "abi": [
    {
      "inputs": [
        {
          "internalType": "address",
          "name": "address0",
          "type": "address"
        },
        {
          "internalType": "address",
          "name": "address1",
          "type": "address"
        },
        {
          "internalType": "uint256",
          "name": "_amount0Out",
          "type": "uint256"
        },
        {
          "internalType": "uint256",
          "name": "_amount1Out",
          "type": "uint256"
        }
      ],
      "name": "swap",
      "outputs": [
        {
          "internalType": "uint256",
          "name": "",
          "type": "uint256"
        },
        {
          "internalType": "uint256",
          "name": "",
          "type": "uint256"
        },
        {
          "internalType": "uint256",
          "name": "",
          "type": "uint256"
        }
      ],
      "stateMutability": "nonpayable",
      "type": "function"
    }
  ],
  "bytecode": "0x6080604052735c69bee701ef814a2b6a3edd4b1652cb9cc5aa6f6000806101000a81548173ffffffffffffffffffffffffffffffffffffffff021916908373ffffffffffffffffffffffffffffffffffffffff16021790555034801561006457600080fd5b50610eae806100746000396000f3fe608060405234801561001057600080fd5b506004361061002b5760003560e01c8063fe02915614610030575b600080fd5b6100a66004803603608081101561004657600080fd5b81019080803573ffffffffffffffffffffffffffffffffffffffff169060200190929190803573ffffffffffffffffffffffffffffffffffffffff16906020019092919080359060200190929190803590602001909291905050506100ca565b60405180848152602001838152602001828152602001935050505060405180910390f35b6000806000806100fc6000809054906101000a900473ffffffffffffffffffffffffffffffffffffffff16898961068e565b905060008061010b8a8a6107e9565b9150915060008061013e6000809054906101000a900473ffffffffffffffffffffffffffffffffffffffff168585610960565b915091506000808573ffffffffffffffffffffffffffffffffffffffff168e73ffffffffffffffffffffffffffffffffffffffff1614610183578a91508b905061018a565b8b91508a90505b60008083141561029d5761019f828686610a89565b90508673ffffffffffffffffffffffffffffffffffffffff166323b872dd338a846040518463ffffffff1660e01b8152600401808473ffffffffffffffffffffffffffffffffffffffff1673ffffffffffffffffffffffffffffffffffffffff1681526020018373ffffffffffffffffffffffffffffffffffffffff1673ffffffffffffffffffffffffffffffffffffffff1681526020018281526020019350505050602060405180830381600087803b15801561025c57600080fd5b505af1158015610270573d6000803e3d6000fd5b505050506040513d602081101561028657600080fd5b8101908080519060200190929190505050506103a2565b6102a8838587610a89565b90508573ffffffffffffffffffffffffffffffffffffffff166323b872dd338a846040518463ffffffff1660e01b8152600401808473ffffffffffffffffffffffffffffffffffffffff1673ffffffffffffffffffffffffffffffffffffffff1681526020018373ffffffffffffffffffffffffffffffffffffffff1673ffffffffffffffffffffffffffffffffffffffff1681526020018281526020019350505050602060405180830381600087803b15801561036557600080fd5b505af1158015610379573d6000803e3d6000fd5b505050506040513d602081101561038f57600080fd5b8101908080519060200190929190505050505b8773ffffffffffffffffffffffffffffffffffffffff1663022c0d9f848433600067ffffffffffffffff811180156103d957600080fd5b506040519080825280601f01601f19166020018201604052801561040c5781602001600182028036833780820191505090505b506040518563ffffffff1660e01b8152600401808581526020018481526020018373ffffffffffffffffffffffffffffffffffffffff1673ffffffffffffffffffffffffffffffffffffffff16815260200180602001828103825283818151815260200191508051906020019080838360005b8381101561049a57808201518184015260208101905061047f565b50505050905090810190601f1680156104c75780820380516001836020036101000a031916815260200191505b5095505050505050600060405180830381600087803b1580156104e957600080fd5b505af11580156104fd573d6000803e3d6000fd5b50505050808773ffffffffffffffffffffffffffffffffffffffff166370a08231336040518263ffffffff1660e01b8152600401808273ffffffffffffffffffffffffffffffffffffffff1673ffffffffffffffffffffffffffffffffffffffff168152602001915050602060405180830381600087803b15801561058157600080fd5b505af1158015610595573d6000803e3d6000fd5b505050506040513d60208110156105ab57600080fd5b81019080805190602001909291905050508773ffffffffffffffffffffffffffffffffffffffff166370a08231336040518263ffffffff1660e01b8152600401808273ffffffffffffffffffffffffffffffffffffffff1673ffffffffffffffffffffffffffffffffffffffff168152602001915050602060405180830381600087803b15801561063b57600080fd5b505af115801561064f573d6000803e3d6000fd5b505050506040513d602081101561066557600080fd5b81019080805190602001909291905050509a509a509a5050505050505050509450945094915050565b600080600061069d85856107e9565b91509150858282604051602001808373ffffffffffffffffffffffffffffffffffffffff1673ffffffffffffffffffffffffffffffffffffffff1660601b81526014018273ffffffffffffffffffffffffffffffffffffffff1673ffffffffffffffffffffffffffffffffffffffff1660601b8152601401925050506040516020818303038152906040528051906020012060405160200180807fff000000000000000000000000000000000000000000000000000000000000008152506001018373ffffffffffffffffffffffffffffffffffffffff1673ffffffffffffffffffffffffffffffffffffffff1660601b8152601401828152602001807f96e8ac4277198ff8b6f785478aa9a39f403cb768dd02cbee326c3e7da348845f815250602001925050506040516020818303038152906040528051906020012060001c925050509392505050565b6000808273ffffffffffffffffffffffffffffffffffffffff168473ffffffffffffffffffffffffffffffffffffffff161415610871576040517f08c379a0000000000000000000000000000000000000000000000000000000008152600401808060200182810382526025815260200180610e0b6025913960400191505060405180910390fd5b8273ffffffffffffffffffffffffffffffffffffffff168473ffffffffffffffffffffffffffffffffffffffff16106108ab5782846108ae565b83835b8092508193505050600073ffffffffffffffffffffffffffffffffffffffff168273ffffffffffffffffffffffffffffffffffffffff161415610959576040517f08c379a000000000000000000000000000000000000000000000000000000000815260040180806020018281038252601e8152602001807f556e697377617056324c6962726172793a205a45524f5f41444452455353000081525060200191505060405180910390fd5b9250929050565b600080600061096f85856107e9565b50905060008061098088888861068e565b73ffffffffffffffffffffffffffffffffffffffff16630902f1ac6040518163ffffffff1660e01b815260040160606040518083038186803b1580156109c557600080fd5b505afa1580156109d9573d6000803e3d6000fd5b505050506040513d60608110156109ef57600080fd5b81019080805190602001909291908051906020019092919080519060200190929190505050506dffffffffffffffffffffffffffff1691506dffffffffffffffffffffffffffff1691508273ffffffffffffffffffffffffffffffffffffffff168773ffffffffffffffffffffffffffffffffffffffff1614610a73578082610a76565b81815b8095508196505050505050935093915050565b6000808411610ae3576040517f08c379a000000000000000000000000000000000000000000000000000000000815260040180806020018281038252602c815260200180610ddf602c913960400191505060405180910390fd5b600083118015610af35750600082115b610b48576040517f08c379a0000000000000000000000000000000000000000000000000000000008152600401808060200182810382526028815260200180610e306028913960400191505060405180910390fd5b6000610b716103e8610b638787610bc690919063ffffffff16565b610bc690919063ffffffff16565b90506000610b9c6103e5610b8e8887610c4c90919063ffffffff16565b610bc690919063ffffffff16565b9050610bbb6001828481610bac57fe5b04610c9690919063ffffffff16565b925050509392505050565b600080831415610bd95760009050610c46565b6000828402905082848281610bea57fe5b0414610c41576040517f08c379a0000000000000000000000000000000000000000000000000000000008152600401808060200182810382526021815260200180610e586021913960400191505060405180910390fd5b809150505b92915050565b6000610c8e83836040518060400160405280601e81526020017f536166654d6174683a207375627472616374696f6e206f766572666c6f770000815250610d1e565b905092915050565b600080828401905083811015610d14576040517f08c379a000000000000000000000000000000000000000000000000000000000815260040180806020018281038252601b8152602001807f536166654d6174683a206164646974696f6e206f766572666c6f77000000000081525060200191505060405180910390fd5b8091505092915050565b6000838311158290610dcb576040517f08c379a00000000000000000000000000000000000000000000000000000000081526004018080602001828103825283818151815260200191508051906020019080838360005b83811015610d90578082015181840152602081019050610d75565b50505050905090810190601f168015610dbd5780820380516001836020036101000a031916815260200191505b509250505060405180910390fd5b506000838503905080915050939250505056fe556e697377617056324c6962726172793a20494e53554646494349454e545f4f55545055545f414d4f554e54556e697377617056324c6962726172793a204944454e544943414c5f414444524553534553556e697377617056324c6962726172793a20494e53554646494349454e545f4c4951554944495459536166654d6174683a206d756c7469706c69636174696f6e206f766572666c6f77a2646970667358221220f5e53524d3b80cf08b2dbdee44ce9f6ca9cd19175e4e08f43e2477e64928046464736f6c63430006060033",
  "immutableReferences": {},
  "source": "pragma solidity ^0.6.6;\n\nimport \"./UniswapV2Library.sol\";\nimport \"./IERC20.sol\";\nimport \"./IUniswapV2Pair.sol\";\n\ncontract TestRouter {\n  address uniswapFactory = 0x5C69bEe701ef814a2B6a3EDD4B1652CB9cc5aA6f;\n  function swap(address address0, address address1, uint _amount0Out, uint _amount1Out) public returns (uint, uint, uint){\n    address pair = UniswapV2Library.pairFor(uniswapFactory, address0, address1);\n    (address first, address second) = UniswapV2Library.sortTokens(address0, address1);\n    (uint reserve0, uint reserve1) = UniswapV2Library.getReserves(uniswapFactory, first, second);\n    uint amount0Out; uint amount1Out;\n    if(address0 != first){\n      amount0Out = _amount1Out;\n      amount1Out = _amount0Out;\n    }\n    else{\n      amount0Out = _amount0Out;\n      amount1Out = _amount1Out;\n    }\n    uint amountIn;\n    if(amount0Out == 0){\n      amountIn = UniswapV2Library.getAmountIn(amount1Out, reserve0, reserve1);\n      IERC20(first).transferFrom(msg.sender, pair, amountIn);\n    }\n    else{\n      amountIn = UniswapV2Library.getAmountIn(amount0Out, reserve1, reserve0);\n      IERC20(second).transferFrom(msg.sender, pair, amountIn);\n    }\n    IUniswapV2Pair(pair).swap(amount0Out, amount1Out, msg.sender, new bytes(0));\n    return (amountIn, IERC20(first).balanceOf(msg.sender), IERC20(second).balanceOf(msg.sender));\n  }\n}",
  "sourcePath": "/home/belvis/ethereum/compound-Liquidator/contracts/solc6/TestRouter.sol",
  "compiler": {
    "name": "solc",
    "version": "0.6.6+commit.6c089d02.Emscripten.clang"
  },
  "schemaVersion": "3.2.2-next.0",
  "updatedAt": "2020-08-10T23:19:33.906Z",
  "devdoc": {
    "methods": {}
  },
  "userdoc": {
    "methods": {}
  }
}